{"abi":[{"type":"constructor","inputs":[{"name":"_blockBuilders","type":"address[]","internalType":"address[]"},{"name":"_computers","type":"address[]","internalType":"address[]"},{"name":"_verifiers","type":"address[]","internalType":"address[]"}],"stateMutability":"nonpayable"},{"type":"function","name":"blockBuilders","inputs":[{"name":"","type":"address","internalType":"address"}],"outputs":[{"name":"","type":"bool","internalType":"bool"}],"stateMutability":"view"},{"type":"function","name":"computers","inputs":[{"name":"","type":"address","internalType":"address"}],"outputs":[{"name":"","type":"bool","internalType":"bool"}],"stateMutability":"view"},{"type":"function","name":"convertBytesToBytes20","inputs":[{"name":"input","type":"bytes","internalType":"bytes"}],"outputs":[{"name":"","type":"bytes20","internalType":"bytes20"}],"stateMutability":"pure"},{"type":"function","name":"decodeCreateCommitment","inputs":[{"name":"rlpData","type":"bytes","internalType":"bytes"}],"outputs":[{"name":"","type":"tuple","internalType":"struct JobManager.CreateCommitment","components":[{"name":"job_run_assignment_tx_hash","type":"bytes32","internalType":"bytes32"},{"name":"lt_root_hash","type":"bytes32","internalType":"bytes32"},{"name":"compute_root_hash","type":"bytes32","internalType":"bytes32"},{"name":"scores_tx_hashes","type":"bytes32[]","internalType":"bytes32[]"},{"name":"new_trust_tx_hashes","type":"bytes32[]","internalType":"bytes32[]"},{"name":"new_seed_tx_hashes","type":"bytes32[]","internalType":"bytes32[]"}]}],"stateMutability":"pure"},{"type":"function","name":"decodeJobRunAssignment","inputs":[{"name":"rlpData","type":"bytes","internalType":"bytes"}],"outputs":[{"name":"","type":"tuple","internalType":"struct JobManager.JobRunAssignment","components":[{"name":"job_run_request_tx_hash","type":"bytes32","internalType":"bytes32"},{"name":"assigned_compute_node","type":"bytes20","internalType":"bytes20"},{"name":"assigned_verifier_node","type":"bytes20","internalType":"bytes20"}]}],"stateMutability":"pure"},{"type":"function","name":"decodeJobRunRequest","inputs":[{"name":"rlpData","type":"bytes","internalType":"bytes"}],"outputs":[{"name":"","type":"tuple","internalType":"struct JobManager.JobRunRequest","components":[{"name":"domain_id","type":"uint64","internalType":"uint64"},{"name":"block_height","type":"uint32","internalType":"uint32"},{"name":"job_id","type":"bytes32","internalType":"bytes32"}]}],"stateMutability":"pure"},{"type":"function","name":"decodeJobVerification","inputs":[{"name":"rlpData","type":"bytes","internalType":"bytes"}],"outputs":[{"name":"","type":"tuple","internalType":"struct JobManager.JobVerification","components":[{"name":"job_run_assignment_tx_hash","type":"bytes32","internalType":"bytes32"},{"name":"verification_result","type":"bool","internalType":"bool"}]}],"stateMutability":"pure"},{"type":"function","name":"hasTx","inputs":[{"name":"","type":"bytes32","internalType":"bytes32"}],"outputs":[{"name":"","type":"bool","internalType":"bool"}],"stateMutability":"view"},{"type":"function","name":"sendJobRunRequest","inputs":[{"name":"transaction","type":"tuple","internalType":"struct JobManager.OpenrankTx","components":[{"name":"nonce","type":"uint64","internalType":"uint64"},{"name":"from","type":"bytes","internalType":"bytes"},{"name":"to","type":"bytes","internalType":"bytes"},{"name":"kind","type":"uint8","internalType":"enum JobManager.TxKind"},{"name":"body","type":"bytes","internalType":"bytes"},{"name":"signature","type":"tuple","internalType":"struct JobManager.Signature","components":[{"name":"s","type":"bytes32","internalType":"bytes32"},{"name":"r","type":"bytes32","internalType":"bytes32"},{"name":"r_id","type":"uint8","internalType":"uint8"}]},{"name":"sequence_number","type":"uint64","internalType":"uint64"}]}],"outputs":[],"stateMutability":"nonpayable"},{"type":"function","name":"submitCreateCommitment","inputs":[{"name":"transaction","type":"tuple","internalType":"struct JobManager.OpenrankTx","components":[{"name":"nonce","type":"uint64","internalType":"uint64"},{"name":"from","type":"bytes","internalType":"bytes"},{"name":"to","type":"bytes","internalType":"bytes"},{"name":"kind","type":"uint8","internalType":"enum JobManager.TxKind"},{"name":"body","type":"bytes","internalType":"bytes"},{"name":"signature","type":"tuple","internalType":"struct JobManager.Signature","components":[{"name":"s","type":"bytes32","internalType":"bytes32"},{"name":"r","type":"bytes32","internalType":"bytes32"},{"name":"r_id","type":"uint8","internalType":"uint8"}]},{"name":"sequence_number","type":"uint64","internalType":"uint64"}]}],"outputs":[],"stateMutability":"nonpayable"},{"type":"function","name":"submitJobRunAssignment","inputs":[{"name":"transaction","type":"tuple","internalType":"struct JobManager.OpenrankTx","components":[{"name":"nonce","type":"uint64","internalType":"uint64"},{"name":"from","type":"bytes","internalType":"bytes"},{"name":"to","type":"bytes","internalType":"bytes"},{"name":"kind","type":"uint8","internalType":"enum JobManager.TxKind"},{"name":"body","type":"bytes","internalType":"bytes"},{"name":"signature","type":"tuple","internalType":"struct JobManager.Signature","components":[{"name":"s","type":"bytes32","internalType":"bytes32"},{"name":"r","type":"bytes32","internalType":"bytes32"},{"name":"r_id","type":"uint8","internalType":"uint8"}]},{"name":"sequence_number","type":"uint64","internalType":"uint64"}]}],"outputs":[],"stateMutability":"nonpayable"},{"type":"function","name":"submitJobVerification","inputs":[{"name":"transaction","type":"tuple","internalType":"struct JobManager.OpenrankTx","components":[{"name":"nonce","type":"uint64","internalType":"uint64"},{"name":"from","type":"bytes","internalType":"bytes"},{"name":"to","type":"bytes","internalType":"bytes"},{"name":"kind","type":"uint8","internalType":"enum JobManager.TxKind"},{"name":"body","type":"bytes","internalType":"bytes"},{"name":"signature","type":"tuple","internalType":"struct JobManager.Signature","components":[{"name":"s","type":"bytes32","internalType":"bytes32"},{"name":"r","type":"bytes32","internalType":"bytes32"},{"name":"r_id","type":"uint8","internalType":"uint8"}]},{"name":"sequence_number","type":"uint64","internalType":"uint64"}]}],"outputs":[],"stateMutability":"nonpayable"},{"type":"function","name":"txs","inputs":[{"name":"","type":"bytes32","internalType":"bytes32"}],"outputs":[{"name":"nonce","type":"uint64","internalType":"uint64"},{"name":"from","type":"bytes","internalType":"bytes"},{"name":"to","type":"bytes","internalType":"bytes"},{"name":"kind","type":"uint8","internalType":"enum JobManager.TxKind"},{"name":"body","type":"bytes","internalType":"bytes"},{"name":"signature","type":"tuple","internalType":"struct JobManager.Signature","components":[{"name":"s","type":"bytes32","internalType":"bytes32"},{"name":"r","type":"bytes32","internalType":"bytes32"},{"name":"r_id","type":"uint8","internalType":"uint8"}]},{"name":"sequence_number","type":"uint64","internalType":"uint64"}],"stateMutability":"view"},{"type":"function","name":"verifiers","inputs":[{"name":"","type":"address","internalType":"address"}],"outputs":[{"name":"","type":"bool","internalType":"bool"}],"stateMutability":"view"},{"type":"event","name":"JobAssigned","inputs":[{"name":"txHash","type":"bytes32","indexed":false,"internalType":"bytes32"},{"name":"computer","type":"address","indexed":false,"internalType":"address"},{"name":"verifier","type":"address","indexed":false,"internalType":"address"}],"anonymous":false},{"type":"event","name":"JobCommitted","inputs":[{"name":"txHash","type":"bytes32","indexed":false,"internalType":"bytes32"}],"anonymous":false},{"type":"event","name":"JobRunRequested","inputs":[{"name":"txHash","type":"bytes32","indexed":false,"internalType":"bytes32"},{"name":"jobId","type":"bytes32","indexed":false,"internalType":"bytes32"}],"anonymous":false},{"type":"event","name":"JobVerified","inputs":[{"name":"txHash","type":"bytes32","indexed":false,"internalType":"bytes32"},{"name":"isVerified","type":"bool","indexed":false,"internalType":"bool"}],"anonymous":false}],"bytecode":{"object":"0x60806040523480156200001157600080fd5b506040516200329e3803806200329e83398101604081905262000034916200026b565b60005b8351811015620000a25760016000808684815181106200005b576200005b620002fc565b6020908102919091018101516001600160a01b03168252810191909152604001600020805460ff191691151591909117905580620000998162000312565b91505062000037565b5060005b825181101562000111576001806000858481518110620000ca57620000ca620002fc565b6020908102919091018101516001600160a01b03168252810191909152604001600020805460ff191691151591909117905580620001088162000312565b915050620000a6565b5060005b815181101562000181576001600260008484815181106200013a576200013a620002fc565b6020908102919091018101516001600160a01b03168252810191909152604001600020805460ff191691151591909117905580620001788162000312565b91505062000115565b505050506200033a565b634e487b7160e01b600052604160045260246000fd5b80516001600160a01b0381168114620001b957600080fd5b919050565b600082601f830112620001d057600080fd5b815160206001600160401b0380831115620001ef57620001ef6200018b565b8260051b604051601f19603f830116810181811084821117156200021757620002176200018b565b6040529384528581018301938381019250878511156200023657600080fd5b83870191505b8482101562000260576200025082620001a1565b835291830191908301906200023c565b979650505050505050565b6000806000606084860312156200028157600080fd5b83516001600160401b03808211156200029957600080fd5b620002a787838801620001be565b94506020860151915080821115620002be57600080fd5b620002cc87838801620001be565b93506040860151915080821115620002e357600080fd5b50620002f286828701620001be565b9150509250925092565b634e487b7160e01b600052603260045260246000fd5b6000600182016200033357634e487b7160e01b600052601160045260246000fd5b5060010190565b612f54806200034a6000396000f3fe608060405234801561001057600080fd5b50600436106100ea5760003560e01c80636c8244871161008c578063986ba39211610066578063986ba3921461024b578063b189aa2e14610271578063e79fbb51146102a1578063eb021d5c146102e857600080fd5b80636c824487146101c45780638628192a146101e757806389b8482c1461020757600080fd5b8063452fe794116100c8578063452fe794146101685780634f7a6f0b1461017b57806350808bff1461018e57806363cebe62146101a157600080fd5b806328ef267c146100ef57806329c9f625146101205780632d200a6f14610135575b600080fd5b6101026100fd36600461231d565b61030b565b6040516001600160601b031990911681526020015b60405180910390f35b61013361012e366004612351565b61036b565b005b61015861014336600461238c565b60046020526000908152604090205460ff1681565b6040519015158152602001610117565b610133610176366004612351565b6105b2565b610133610189366004612533565b6107d4565b61013361019c366004612351565b61099f565b6101586101af366004612567565b60006020819052908152604090205460ff1681565b6101586101d2366004612567565b60026020526000908152604090205460ff1681565b6101fa6101f536600461231d565b610d1a565b60405161011791906125cb565b61021a61021536600461231d565b61107e565b6040805182516001600160401b0316815260208084015163ffffffff16908201529181015190820152606001610117565b61025e61025936600461238c565b611152565b60405161011797969594939291906126b0565b61028461027f36600461231d565b611368565b604080518251815260209283015115159281019290925201610117565b6102b46102af36600461231d565b61140d565b60408051825181526020808401516001600160601b0319908116918301919091529282015190921690820152606001610117565b6101586102f6366004612567565b60016020526000908152604090205460ff1681565b600081516014146103635760405162461bcd60e51b815260206004820152601b60248201527f496e707574206d757374206265203230206279746573206c6f6e67000000000060448201526064015b60405180910390fd5b506020015190565b600061037e61037983612762565b6114f6565b9050600061039436849003840160a0850161276e565b602080820151825160408085015190519495506000946103b4940161278a565b604051602081830303815290604052905060006103d18483611615565b6001600160a01b03811660009081526002602052604090205490915060ff1661043c5760405162461bcd60e51b815260206004820152601860248201527f5665726966696572206e6f742077686974656c69737465640000000000000000604482015260640161035a565b600661044e60808701606088016127ad565b600881111561045f5761045f61269a565b146104ac5760405162461bcd60e51b815260206004820152601b60248201527f4578706563746564204a6f62566572696669636174696f6e2054580000000000604482015260640161035a565b60006104f86104be60808801886127ca565b8080601f01602080910402602001604051908101604052809392919081815260200183838082843760009201919091525061136892505050565b805160009081526004602052604090205490915060ff1661052b5760405162461bcd60e51b815260040161035a90612817565b600085815260036020526040902086906105458282612a2a565b5050600085815260046020908152604091829020805460ff1916600117905582015190517f0188557fc3102952e9b39bfeaffe8d5ff704e4fa43b54ec0359f0eb7ba50a291916105a2918891909182521515602082015260400190565b60405180910390a1505050505050565b60006105c061037983612762565b905060006105d636849003840160a0850161276e565b602080820151825160408085015190519495506000946105f6940161278a565b604051602081830303815290604052905060006106138483611615565b6001600160a01b03811660009081526001602052604090205490915060ff1661067e5760405162461bcd60e51b815260206004820152601860248201527f436f6d7075746572206e6f742077686974656c69737465640000000000000000604482015260640161035a565b600561069060808701606088016127ad565b60088111156106a1576106a161269a565b146106ee5760405162461bcd60e51b815260206004820152601c60248201527f457870656374656420437265617465436f6d6d69746d656e7420545800000000604482015260640161035a565b600061073a61070060808801886127ca565b8080601f016020809104026020016040519081016040528093929190818152602001838380828437600092019190915250610d1a92505050565b805160009081526004602052604090205490915060ff1661076d5760405162461bcd60e51b815260040161035a90612817565b600085815260036020526040902086906107878282612a2a565b505060008581526004602052604090819020805460ff19166001179055517f443548341b5f0228fdbd6de5e046d5baa7bf2e28b6ac2149fa775d116df416cd906105a29087815260200190565b60006107df826114f6565b90506002826060015160088111156107f9576107f961269a565b146108465760405162461bcd60e51b815260206004820152601960248201527f4578706563746564204a6f6252756e5265717565737420545800000000000000604482015260640161035a565b6000610855836080015161107e565b60008381526003602090815260409091208551815467ffffffffffffffff19166001600160401b03909116178155908501519192508491600182019061089b9082612baf565b50604082015160028201906108b09082612baf565b50606082015160038201805460ff191660018360088111156108d4576108d461269a565b0217905550608082015160048201906108ed9082612baf565b5060a082015180516005830155602080820151600684015560409182015160078401805460ff90921660ff1992831617905560c090940151600890930180546001600160401b0390941667ffffffffffffffff19909416939093179092556000858152600483528190208054909316600117909255828201518251858152918201527f2ddc0b96afe87b93b42f8d2061904f29fbad4723d6922583b130d3a3107acca8910160405180910390a1505050565b60006109ad61037983612762565b905060006109c336849003840160a0850161276e565b602080820151825160408085015190519495506000946109e3940161278a565b60405160208183030381529060405290506000610a008483611615565b6001600160a01b03811660009081526020819052604090205490915060ff16610a6b5760405162461bcd60e51b815260206004820152601c60248201527f426c6f636b4275696c646572206e6f742077686974656c697374656400000000604482015260640161035a565b6003610a7d60808701606088016127ad565b6008811115610a8e57610a8e61269a565b14610adb5760405162461bcd60e51b815260206004820152601c60248201527f4578706563746564204a6f6252756e41737369676e6d656e7420545800000000604482015260640161035a565b6000610b27610aed60808801886127ca565b8080601f01602080910402602001604051908101604052809392919081815260200183838082843760009201919091525061140d92505050565b805160009081526004602052604090205490915060ff16610b945760405162461bcd60e51b815260206004820152602160248201527f4d61746368696e67204a6f6252756e52657175657374205458206d697373696e6044820152606760f81b606482015260840161035a565b602080820151604080840151606092831c600081815260019095529190932054909290911c9060ff16610c135760405162461bcd60e51b815260206004820152602160248201527f41737369676e656420636f6d7075746572206e6f742077686974656c697374656044820152601960fa1b606482015260840161035a565b6001600160a01b03811660009081526002602052604090205460ff16610c855760405162461bcd60e51b815260206004820152602160248201527f41737369676e6564207665726966696572206e6f742077686974656c697374656044820152601960fa1b606482015260840161035a565b60008781526003602052604090208890610c9f8282612a2a565b505060008781526004602052604090819020805460ff19166001179055517f9e1c0537a7aedaab5b94abf6a149b43527c7b9ecdcad96cbc0f419465a647f6390610d08908990859085909283526001600160a01b03918216602084015216604082015260600190565b60405180910390a15050505050505050565b6040805160c0810182526000808252602080830182905282840182905260608084018190526080840181905260a0840152835180850185528281528101829052835180850190945284518452848101908401529091610d78906116ed565b90506000610d9f82600381518110610d9257610d92612c68565b60200260200101516116ed565b9050600081516001600160401b03811115610dbc57610dbc612253565b604051908082528060200260200182016040528015610de5578160200160208202803683370190505b50905060005b8251811015610e6357610e2b610e0c848381518110610d9257610d92612c68565b600081518110610e1e57610e1e612c68565b6020026020010151611802565b610e3490612c7e565b828281518110610e4657610e46612c68565b602090810291909101015280610e5b81612cb8565b915050610deb565b506000610e7c84600481518110610d9257610d92612c68565b9050600081516001600160401b03811115610e9957610e99612253565b604051908082528060200260200182016040528015610ec2578160200160208202803683370190505b50905060005b8251811015610f2157610ee9610e0c848381518110610d9257610d92612c68565b610ef290612c7e565b828281518110610f0457610f04612c68565b602090810291909101015280610f1981612cb8565b915050610ec8565b506000610f3a86600581518110610d9257610d92612c68565b9050600081516001600160401b03811115610f5757610f57612253565b604051908082528060200260200182016040528015610f80578160200160208202803683370190505b50905060005b8251811015610fdf57610fa7610e0c848381518110610d9257610d92612c68565b610fb090612c7e565b828281518110610fc257610fc2612c68565b602090810291909101015280610fd781612cb8565b915050610f86565b506040518060c00160405280611004610e0c8a600081518110610d9257610d92612c68565b61100d90612c7e565b815260200161102b610e0c8a600181518110610d9257610d92612c68565b61103490612c7e565b8152602001611052610e0c8a600281518110610d9257610d92612c68565b61105b90612c7e565b815260200186815260200184815260200182815250975050505050505050919050565b60408051606081018252600080825260208083018290528284018290528351808501855282815281018290528351808501909452845184528481019084015290916110c8906116ed565b905060405180606001604052806110f8836000815181106110eb576110eb612c68565b602002602001015161187f565b6001600160401b0316815260200161111c836001815181106110eb576110eb612c68565b63ffffffff168152602001611140610e0c84600281518110610d9257610d92612c68565b61114990612c7e565b90529392505050565b600360205260009081526040902080546001820180546001600160401b03909216929161117e90612868565b80601f01602080910402602001604051908101604052809291908181526020018280546111aa90612868565b80156111f75780601f106111cc576101008083540402835291602001916111f7565b820191906000526020600020905b8154815290600101906020018083116111da57829003601f168201915b50505050509080600201805461120c90612868565b80601f016020809104026020016040519081016040528092919081815260200182805461123890612868565b80156112855780601f1061125a57610100808354040283529160200191611285565b820191906000526020600020905b81548152906001019060200180831161126857829003601f168201915b5050506003840154600485018054949560ff9092169491935091506112a990612868565b80601f01602080910402602001604051908101604052809291908181526020018280546112d590612868565b80156113225780601f106112f757610100808354040283529160200191611322565b820191906000526020600020905b81548152906001019060200180831161130557829003601f168201915b5050604080516060810182526005870154815260068701546020820152600787015460ff16918101919091526008909501549394936001600160401b0316925089915050565b604080518082018252600080825260208083018290528351808501855282815281018290528351808501909452845184528481019084015290916113ab906116ed565b905060405180604001604052806113d1610e0c84600081518110610d9257610d92612c68565b6113da90612c7e565b8152602001611402836001815181106113f5576113f5612c68565b60200260200101516118cd565b151590529392505050565b6040805160608101825260008082526020808301829052828401829052835180850185528281528101829052835180850190945284518452848101908401529091611457906116ed565b9050604051806060016040528061147d610e0c84600081518110610d9257610d92612c68565b61148690612c7e565b81526020016114a4610e0c84600181518110610d9257610d92612c68565b6114ad90612cd1565b6bffffffffffffffffffffffff191681526020016114da610e0c84600281518110610d9257610d92612c68565b6114e390612cd1565b6001600160601b03191690529392505050565b604080516001808252818301909252600091829190816020015b6060815260200190600190039081611510579050509050611534836020015161190f565b8160008151811061154757611547612c68565b6020908102919091010152604080516001808252818301909252600091816020015b606081526020019060019003908161156957905050905061158d846040015161190f565b816000815181106115a0576115a0612c68565b602090810291909101015283516115b683611965565b6115bf83611965565b6115dd876060015160088111156115d8576115d861269a565b611989565b87608001516040516020016115f6959493929190612d08565b6040516020818303038152906040528051906020012092505050919050565b6000806000806116248561199c565b925092509250600060018785858560405160008152602001604052604051611668949392919093845260ff9290921660208401526040830152606082015260800190565b6020604051602081039080840390855afa15801561168a573d6000803e3d6000fd5b5050604051601f1901519150506001600160a01b0381166116e15760405162461bcd60e51b8152602060048201526011602482015270496e76616c6964207369676e617475726560781b604482015260640161035a565b93505050505b92915050565b60606116f882611a1c565b61170157600080fd5b600061170c83611a4d565b90506000816001600160401b0381111561172857611728612253565b60405190808252806020026020018201604052801561176d57816020015b60408051808201909152600080825260208201528152602001906001900390816117465790505b509050600061177f8560200151611ad2565b856020015161178e9190612d81565b90506000805b848110156117f7576117a583611b53565b91506040518060400160405280838152602001848152508482815181106117ce576117ce612c68565b60209081029190910101526117e38284612d81565b9250806117ef81612cb8565b915050611794565b509195945050505050565b805160609061181057600080fd5b60008061181c84611bfc565b915091506000816001600160401b0381111561183a5761183a612253565b6040519080825280601f01601f191660200182016040528015611864576020820181803683370190505b50905060208101611876848285611c43565b50949350505050565b80516000901580159061189457508151602110155b61189d57600080fd5b6000806118a984611bfc565b8151919350915060208210156118c55760208290036101000a90045b949350505050565b80516000906001146118de57600080fd5b6020820151805160001a908115806118f65750608082145b15611905575060009392505050565b5060019392505050565b6060808251600114801561193d575060808360008151811061193357611933612c68565b016020015160f81c105b156119495750816116e7565b61195e61195884516080611cc6565b84611e7c565b9392505050565b6060600061197283611ef9565b905061195e611983825160c0611cc6565b82611e7c565b60606116e7611997836120aa565b61190f565b600080600083516041146119f25760405162461bcd60e51b815260206004820152601860248201527f496e76616c6964207369676e6174757265206c656e6774680000000000000000604482015260640161035a565b50505060208101516040820151606083015160001a9190611a1483601b612d94565b949193509150565b80516000908103611a2f57506000919050565b6020820151805160001a9060c0821015611905575060009392505050565b80516000908103611a6057506000919050565b600080611a708460200151611ad2565b8460200151611a7f9190612d81565b9050600084600001518560200151611a979190612d81565b90505b80821015611ac957611aab82611b53565b611ab59083612d81565b915082611ac181612cb8565b935050611a9a565b50909392505050565b8051600090811a6080811015611aeb5750600092915050565b60b8811080611b06575060c08110801590611b06575060f881105b15611b145750600192915050565b60c0811015611b4157611b29600160b8612dad565b611b369060ff1682612dc6565b61195e906001612d81565b611b29600160f8612dad565b50919050565b80516000908190811a6080811015611b6e5760019150611bf5565b60b8811015611b9457611b82608082612dc6565b611b8d906001612d81565b9150611bf5565b60c0811015611bc15760b78103600185019450806020036101000a85510460018201810193505050611bf5565b60f8811015611bd557611b8260c082612dc6565b60f78103600185019450806020036101000a855104600182018101935050505b5092915050565b6000806000611c0e8460200151611ad2565b90506000818560200151611c229190612d81565b90506000828660000151611c369190612dc6565b9196919550909350505050565b80600003611c5057505050565b60208110611c885782518252611c67602084612d81565b9250611c74602083612d81565b9150611c81602082612dc6565b9050611c50565b8015611cc15760006001611c9d836020612dc6565b611ca990610100612ebd565b611cb39190612dc6565b845184518216911916178352505b505050565b6060806038841015611d305760408051600180825281830190925290602082018180368337019050509050611cfb8385612d81565b601f1a60f81b81600081518110611d1457611d14612c68565b60200101906001600160f81b031916908160001a90535061195e565b600060015b611d3f8187612edf565b15611d655781611d4e81612cb8565b9250611d5e905061010082612ef3565b9050611d35565b611d70826001612d81565b6001600160401b03811115611d8757611d87612253565b6040519080825280601f01601f191660200182016040528015611db1576020820181803683370190505b509250611dbe8583612d81565b611dc9906037612d81565b601f1a60f81b83600081518110611de257611de2612c68565b60200101906001600160f81b031916908160001a905350600190505b818111611e7357610100611e128284612dc6565b611e1e90610100612ebd565b611e289088612edf565b611e329190612f0a565b601f1a60f81b838281518110611e4a57611e4a612c68565b60200101906001600160f81b031916908160001a90535080611e6b81612cb8565b915050611dfe565b50509392505050565b6060806040519050835180825260208201818101602087015b81831015611ead578051835260209283019201611e95565b50855184518101855292509050808201602086015b81831015611eda578051835260209283019201611ec2565b508651929092011591909101601f01601f191660405250905092915050565b60608151600003611f1a576040805160008082526020820190925290611bf5565b6000805b8351811015611fe2576000848281518110611f3b57611f3b612c68565b60200260200101515111611fa85760405162461bcd60e51b815260206004820152602e60248201527f416e206974656d20696e20746865206c69737420746f20626520524c5020656e60448201526d31b7b232b21034b990373ab6361760911b606482015260840161035a565b838181518110611fba57611fba612c68565b60200260200101515182611fce9190612d81565b915080611fda81612cb8565b915050611f1e565b6000826001600160401b03811115611ffc57611ffc612253565b6040519080825280601f01601f191660200182016040528015612026576020820181803683370190505b50600092509050602081015b855183101561187657600086848151811061204f5761204f612c68565b60200260200101519050600060208201905061206d838284516121db565b87858151811061207f5761207f612c68565b602002602001015151836120939190612d81565b9250505082806120a290612cb8565b935050612032565b6040805160208082528183019092526060916000919060208201818036833701905050905082602082015260005b602081101561211b578181815181106120f3576120f3612c68565b01602001516001600160f81b03191660000361211b578061211381612cb8565b9150506120d8565b6000612128826020612dc6565b6001600160401b0381111561213f5761213f612253565b6040519080825280601f01601f191660200182016040528015612169576020820181803683370190505b50905060005b815181101561187657838361218381612cb8565b94508151811061219557612195612c68565b602001015160f81c60f81b8282815181106121b2576121b2612c68565b60200101906001600160f81b031916908160001a905350806121d381612cb8565b91505061216f565b8282825b6020811061221757815183526121f6602084612d81565b9250612203602083612d81565b9150612210602082612dc6565b90506121df565b60006001612226836020612dc6565b61223290610100612ebd565b61223c9190612dc6565b925184518416931916929092179092525050505050565b634e487b7160e01b600052604160045260246000fd5b60405160e081016001600160401b038111828210171561228b5761228b612253565b60405290565b600082601f8301126122a257600080fd5b81356001600160401b03808211156122bc576122bc612253565b604051601f8301601f19908116603f011681019082821181831017156122e4576122e4612253565b816040528381528660208588010111156122fd57600080fd5b836020870160208301376000602085830101528094505050505092915050565b60006020828403121561232f57600080fd5b81356001600160401b0381111561234557600080fd5b6118c584828501612291565b60006020828403121561236357600080fd5b81356001600160401b0381111561237957600080fd5b8201610120818503121561195e57600080fd5b60006020828403121561239e57600080fd5b5035919050565b6001600160401b03811681146123ba57600080fd5b50565b80356123c8816123a5565b919050565b600981106123ba57600080fd5b80356123c8816123cd565b60ff811681146123ba57600080fd5b60006060828403121561240657600080fd5b604051606081018181106001600160401b038211171561242857612428612253565b80604052508091508235815260208301356020820152604083013561244c816123e5565b6040919091015292915050565b6000610120828403121561246c57600080fd5b612474612269565b905061247f826123bd565b815260208201356001600160401b038082111561249b57600080fd5b6124a785838601612291565b602084015260408401359150808211156124c057600080fd5b6124cc85838601612291565b60408401526124dd606085016123da565b606084015260808401359150808211156124f657600080fd5b5061250384828501612291565b6080830152506125168360a084016123f4565b60a082015261252861010083016123bd565b60c082015292915050565b60006020828403121561254557600080fd5b81356001600160401b0381111561255b57600080fd5b6118c584828501612459565b60006020828403121561257957600080fd5b81356001600160a01b038116811461195e57600080fd5b600081518084526020808501945080840160005b838110156125c0578151875295820195908201906001016125a4565b509495945050505050565b602081528151602082015260208201516040820152604082015160608201526000606083015160c0608084015261260560e0840182612590565b90506080840151601f19808584030160a08601526126238383612590565b925060a08601519150808584030160c0860152506126418282612590565b95945050505050565b60005b8381101561266557818101518382015260200161264d565b50506000910152565b6000815180845261268681602086016020860161264a565b601f01601f19169290920160200192915050565b634e487b7160e01b600052602160045260246000fd5b60006101206001600160401b038a1683528060208401526126d38184018a61266e565b905082810360408401526126e7818961266e565b90506009871061270757634e487b7160e01b600052602160045260246000fd5b866060840152828103608084015261271f818761266e565b915050835160a0830152602084015160c083015260ff60408501511660e08301526127566101008301846001600160401b03169052565b98975050505050505050565b60006116e73683612459565b60006060828403121561278057600080fd5b61195e83836123f4565b928352602083019190915260f81b6001600160f81b031916604082015260410190565b6000602082840312156127bf57600080fd5b813561195e816123cd565b6000808335601e198436030181126127e157600080fd5b8301803591506001600160401b038211156127fb57600080fd5b60200191503681900382131561281057600080fd5b9250929050565b60208082526024908201527f4d61746368696e67204a6f6252756e41737369676e6d656e74205458206d697360408201526373696e6760e01b606082015260800190565b600081356116e7816123a5565b600181811c9082168061287c57607f821691505b602082108103611b4d57634e487b7160e01b600052602260045260246000fd5b601f821115611cc157600081815260208120601f850160051c810160208610156128c35750805b601f850160051c820191505b818110156128e2578281556001016128cf565b505050505050565b600019600383901b1c191660019190911b1790565b6001600160401b0383111561291657612916612253565b61292a836129248354612868565b8361289c565b6000601f84116001811461295857600085156129465750838201355b61295086826128ea565b8455506129b2565b600083815260209020601f19861690835b828110156129895786850135825560209485019460019092019101612969565b50868210156129a65760001960f88860031b161c19848701351681555b505060018560011b0183555b5050505050565b600081356116e7816123cd565b600982106129e457634e487b7160e01b600052602160045260246000fd5b60ff1981541660ff831681178255505050565b8135815560208201356001820155600281016040830135612a17816123e5565b815460ff191660ff919091161790555050565b8135612a35816123a5565b815467ffffffffffffffff19166001600160401b0382161782555060018082016020612a63818601866127ca565b6001600160401b03811115612a7a57612a7a612253565b612a8e81612a888654612868565b8661289c565b6000601f821160018114612abc5760008315612aaa5750838201355b612ab484826128ea565b875550612b11565b600086815260209020601f19841690835b82811015612aea5786850135825593870193908901908701612acd565b5084821015612b075760001960f88660031b161c19848701351681555b50508683881b0186555b50505050505050612b2560408301836127ca565b612b338183600286016128ff565b5050612b4d612b44606084016129b9565b600383016129c6565b612b5a60808301836127ca565b612b688183600486016128ff565b5050612b7a60a08301600583016129f7565b612bab612b8a610100840161285b565b600883016001600160401b0382166001600160401b03198254161781555050565b5050565b81516001600160401b03811115612bc857612bc8612253565b612bdc81612bd68454612868565b8461289c565b602080601f831160018114612c0b5760008415612bf95750858301515b612c0385826128ea565b8655506128e2565b600085815260208120601f198616915b82811015612c3a57888601518255948401946001909101908401612c1b565b5085821015612c585787850151600019600388901b60f8161c191681555b5050505050600190811b01905550565b634e487b7160e01b600052603260045260246000fd5b80516020808301519190811015611b4d5760001960209190910360031b1b16919050565b634e487b7160e01b600052601160045260246000fd5b600060018201612cca57612cca612ca2565b5060010190565b805160208201516001600160601b03198082169291906014831015612d005780818460140360031b1b83161693505b505050919050565b6001600160401b0360c01b8660c01b16815260008551612d2f816008850160208a0161264a565b855190830190612d46816008840160208a0161264a565b8551910190612d5c81600884016020890161264a565b8451910190612d7281600884016020880161264a565b01600801979650505050505050565b808201808211156116e7576116e7612ca2565b60ff81811683821601908111156116e7576116e7612ca2565b60ff82811682821603908111156116e7576116e7612ca2565b818103818111156116e7576116e7612ca2565b600181815b80851115612e14578160001904821115612dfa57612dfa612ca2565b80851615612e0757918102915b93841c9390800290612dde565b509250929050565b600082612e2b575060016116e7565b81612e38575060006116e7565b8160018114612e4e5760028114612e5857612e74565b60019150506116e7565b60ff841115612e6957612e69612ca2565b50506001821b6116e7565b5060208310610133831016604e8410600b8410161715612e97575081810a6116e7565b612ea18383612dd9565b8060001904821115612eb557612eb5612ca2565b029392505050565b600061195e8383612e1c565b634e487b7160e01b600052601260045260246000fd5b600082612eee57612eee612ec9565b500490565b80820281158282048414176116e7576116e7612ca2565b600082612f1957612f19612ec9565b50069056fea2646970667358221220f1acf3672894f554f3d19bbe96fd53500cdaf3363161b9fad2a74aafee062e4364736f6c63430008110033","linkReferences":{}},"methodIdentifiers":{"blockBuilders(address)":"63cebe62","computers(address)":"eb021d5c","convertBytesToBytes20(bytes)":"28ef267c","decodeCreateCommitment(bytes)":"8628192a","decodeJobRunAssignment(bytes)":"e79fbb51","decodeJobRunRequest(bytes)":"89b8482c","decodeJobVerification(bytes)":"b189aa2e","hasTx(bytes32)":"2d200a6f","sendJobRunRequest((uint64,bytes,bytes,uint8,bytes,(bytes32,bytes32,uint8),uint64))":"4f7a6f0b","submitCreateCommitment((uint64,bytes,bytes,uint8,bytes,(bytes32,bytes32,uint8),uint64))":"452fe794","submitJobRunAssignment((uint64,bytes,bytes,uint8,bytes,(bytes32,bytes32,uint8),uint64))":"50808bff","submitJobVerification((uint64,bytes,bytes,uint8,bytes,(bytes32,bytes32,uint8),uint64))":"29c9f625","txs(bytes32)":"986ba392","verifiers(address)":"6c824487"},"id":23}