{
  "abi": [
    {
      "type": "constructor",
      "inputs": [
        {
          "name": "_computers",
          "type": "address[]",
          "internalType": "address[]"
        },
        {
          "name": "_verifiers",
          "type": "address[]",
          "internalType": "address[]"
        }
      ],
      "stateMutability": "nonpayable"
    },
    {
      "type": "function",
      "name": "computeRootHashes",
      "inputs": [
        {
          "name": "",
          "type": "bytes32",
          "internalType": "bytes32"
        },
        {
          "name": "",
          "type": "bytes32",
          "internalType": "bytes32"
        }
      ],
      "outputs": [
        {
          "name": "",
          "type": "bytes32",
          "internalType": "bytes32"
        }
      ],
      "stateMutability": "view"
    },
    {
      "type": "function",
      "name": "computers",
      "inputs": [
        {
          "name": "",
          "type": "address",
          "internalType": "address"
        }
      ],
      "outputs": [
        {
          "name": "",
          "type": "bool",
          "internalType": "bool"
        }
      ],
      "stateMutability": "view"
    },
    {
      "type": "function",
      "name": "decodeComputeVerification",
      "inputs": [
        {
          "name": "rlpData",
          "type": "bytes",
          "internalType": "bytes"
        }
      ],
      "outputs": [
        {
          "name": "",
          "type": "tuple",
          "internalType": "struct ComputeManager.ComputeVerification",
          "components": [
            {
              "name": "compute_assignment_tx_hash",
              "type": "bytes32",
              "internalType": "bytes32"
            },
            {
              "name": "verification_result",
              "type": "bool",
              "internalType": "bool"
            }
          ]
        }
      ],
      "stateMutability": "pure"
    },
    {
      "type": "function",
      "name": "hasTx",
      "inputs": [
        {
          "name": "",
          "type": "bytes32",
          "internalType": "bytes32"
        }
      ],
      "outputs": [
        {
          "name": "",
          "type": "bool",
          "internalType": "bool"
        }
      ],
      "stateMutability": "view"
    },
    {
      "type": "function",
      "name": "submitComputeCommitment",
      "inputs": [
        {
          "name": "computeAssignTxHash",
          "type": "bytes32",
          "internalType": "bytes32"
        },
        {
          "name": "computeCommitTxHash",
          "type": "bytes32",
          "internalType": "bytes32"
        },
        {
          "name": "computeRootHash",
          "type": "bytes32",
          "internalType": "bytes32"
        },
        {
          "name": "sig",
          "type": "tuple",
          "internalType": "struct ComputeManager.Signature",
          "components": [
            {
              "name": "s",
              "type": "bytes32",
              "internalType": "bytes32"
            },
            {
              "name": "r",
              "type": "bytes32",
              "internalType": "bytes32"
            },
            {
              "name": "r_id",
              "type": "uint8",
              "internalType": "uint8"
            }
          ]
        }
      ],
      "outputs": [],
      "stateMutability": "nonpayable"
    },
    {
      "type": "function",
      "name": "submitComputeVerification",
      "inputs": [
        {
          "name": "_tx",
          "type": "tuple",
          "internalType": "struct ComputeManager.OpenrankTx",
          "components": [
            {
              "name": "nonce",
              "type": "uint64",
              "internalType": "uint64"
            },
            {
              "name": "from",
              "type": "address",
              "internalType": "address"
            },
            {
              "name": "to",
              "type": "address",
              "internalType": "address"
            },
            {
              "name": "kind",
              "type": "uint8",
              "internalType": "enum ComputeManager.Kind"
            },
            {
              "name": "body",
              "type": "bytes",
              "internalType": "bytes"
            },
            {
              "name": "signature",
              "type": "tuple",
              "internalType": "struct ComputeManager.Signature",
              "components": [
                {
                  "name": "s",
                  "type": "bytes32",
                  "internalType": "bytes32"
                },
                {
                  "name": "r",
                  "type": "bytes32",
                  "internalType": "bytes32"
                },
                {
                  "name": "r_id",
                  "type": "uint8",
                  "internalType": "uint8"
                }
              ]
            },
            {
              "name": "sequence_number",
              "type": "uint64",
              "internalType": "uint64"
            }
          ]
        }
      ],
      "outputs": [],
      "stateMutability": "nonpayable"
    },
    {
      "type": "function",
      "name": "verifiers",
      "inputs": [
        {
          "name": "",
          "type": "address",
          "internalType": "address"
        }
      ],
      "outputs": [
        {
          "name": "",
          "type": "bool",
          "internalType": "bool"
        }
      ],
      "stateMutability": "view"
    },
    {
      "type": "event",
      "name": "ComputeCommitted",
      "inputs": [
        {
          "name": "txHash",
          "type": "bytes32",
          "indexed": false,
          "internalType": "bytes32"
        },
        {
          "name": "computer",
          "type": "address",
          "indexed": true,
          "internalType": "address"
        }
      ],
      "anonymous": false
    },
    {
      "type": "event",
      "name": "ComputeVerified",
      "inputs": [
        {
          "name": "txHash",
          "type": "bytes32",
          "indexed": false,
          "internalType": "bytes32"
        },
        {
          "name": "verifier",
          "type": "address",
          "indexed": true,
          "internalType": "address"
        }
      ],
      "anonymous": false
    }
  ],
  "bytecode": {
    "object": "0x60806040523480156200001157600080fd5b5060405162001baa38038062001baa8339810160408190526200003491620001fa565b60005b8251811015620000a25760016000808584815181106200005b576200005b62000264565b6020908102919091018101516001600160a01b03168252810191909152604001600020805460ff19169115159190911790558062000099816200027a565b91505062000037565b5060005b815181101562000111576001806000848481518110620000ca57620000ca62000264565b6020908102919091018101516001600160a01b03168252810191909152604001600020805460ff19169115159190911790558062000108816200027a565b915050620000a6565b505050620002a2565b634e487b7160e01b600052604160045260246000fd5b80516001600160a01b03811681146200014857600080fd5b919050565b600082601f8301126200015f57600080fd5b815160206001600160401b03808311156200017e576200017e6200011a565b8260051b604051601f19603f83011681018181108482111715620001a657620001a66200011a565b604052938452858101830193838101925087851115620001c557600080fd5b83870191505b84821015620001ef57620001df8262000130565b83529183019190830190620001cb565b979650505050505050565b600080604083850312156200020e57600080fd5b82516001600160401b03808211156200022657600080fd5b62000234868387016200014d565b935060208501519150808211156200024b57600080fd5b506200025a858286016200014d565b9150509250929050565b634e487b7160e01b600052603260045260246000fd5b6000600182016200029b57634e487b7160e01b600052601160045260246000fd5b5060010190565b6118f880620002b26000396000f3fe608060405234801561001057600080fd5b506004361061007d5760003560e01c80639228a0461161005b5780639228a046146100f2578063c6bb3d5c1461012b578063eb021d5c1461015b578063f78b6c971461017e57600080fd5b80632d200a6f1461008257806359fb68ac146100ba5780636c824487146100cf575b600080fd5b6100a561009036600461127a565b60036020526000908152604090205460ff1681565b60405190151581526020015b60405180910390f35b6100cd6100c836600461133c565b610191565b005b6100a56100dd366004611398565b60016020526000908152604090205460ff1681565b61011d6101003660046113b3565b600260209081526000928352604080842090915290825290205481565b6040519081526020016100b1565b61013e610139366004611461565b610295565b6040805182518152602092830151151592810192909252016100b1565b6100a5610169366004611398565b60006020819052908152604090205460ff1681565b6100cd61018c36600461149d565b610366565b600061019d848361058b565b6001600160a01b03811660009081526020819052604090205490915060ff1661020d5760405162461bcd60e51b815260206004820152601860248201527f436f6d7075746572206e6f742077686974656c6973746564000000000000000060448201526064015b60405180910390fd5b60008581526002602090815260408083208784528252808320869055878352600382528083208054600160ff1991821681179092558885529382902080549094161790925590518581526001600160a01b038316917f843880b90889de74e0ff427f00391545af2a88d88e093568b6b8724041fed7a891015b60405180910390a25050505050565b604080518082018252600080825260208083018290528351808501855282815281018290528351808501909452845184528481019084015290916102d890610669565b9050604051806040016040528061032a61030b846000815181106102fe576102fe6114d8565b6020026020010151610669565b60008151811061031d5761031d6114d8565b602002602001015161077e565b610333906114ee565b815260200161035b8360018151811061034e5761034e6114d8565b60200260200101516107fb565b151590529392505050565b600061037961037483611538565b61083d565b9050600061038f36849003840160a085016115e6565b9050600061039d838361058b565b6001600160a01b03811660009081526001602052604090205490915060ff166104085760405162461bcd60e51b815260206004820152601860248201527f5665726966696572206e6f742077686974656c697374656400000000000000006044820152606401610204565b600661041a6080860160608701611618565b600881111561042b5761042b611602565b146104785760405162461bcd60e51b815260206004820152601f60248201527f457870656374656420436f6d70757465566572696669636174696f6e205458006044820152606401610204565b60006104c461048a6080870187611633565b8080601f01602080910402602001604051908101604052809392919081815260200183838082843760009201919091525061029592505050565b805160009081526003602052604090205490915060ff166105355760405162461bcd60e51b815260206004820152602560248201527f4d61746368696e6720436f6d7075746541737369676e6d656e74205458206d696044820152647373696e6760d81b6064820152608401610204565b60008481526003602052604090819020805460ff19166001179055516001600160a01b038316907faf0fd28373080ab7139b0788c6327bb65868d39ae3918e8d997d44b316568171906102869087815260200190565b6000806000808460400151601b6105a29190611696565b60208087015187516040805160008082529481018083528c905260ff861691810191909152606081018390526080810182905293965090945092509060019060a0016020604051602081039080840390855afa158015610606573d6000803e3d6000fd5b5050604051601f1901519150506001600160a01b03811661065d5760405162461bcd60e51b8152602060048201526011602482015270496e76616c6964207369676e617475726560781b6044820152606401610204565b93505050505b92915050565b6060610674826109b6565b61067d57600080fd5b6000610688836109e7565b90506000816001600160401b038111156106a4576106a4611293565b6040519080825280602002602001820160405280156106e957816020015b60408051808201909152600080825260208201528152602001906001900390816106c25790505b50905060006106fb8560200151610a6c565b856020015161070a91906116af565b90506000805b848110156107735761072183610af4565b915060405180604001604052808381526020018481525084828151811061074a5761074a6114d8565b602090810291909101015261075f82846116af565b92508061076b816116c2565b915050610710565b509195945050505050565b805160609061078c57600080fd5b60008061079884610b9d565b915091506000816001600160401b038111156107b6576107b6611293565b6040519080825280601f01601f1916602001820160405280156107e0576020820181803683370190505b509050602081016107f2848285610be4565b50949350505050565b805160009060011461080c57600080fd5b6020820151805160001a908115806108245750608082145b15610833575060009392505050565b5060019392505050565b604080516001808252818301909252600091829190816020015b60608152602001906001900390816108575790505090506108b2836020015160405160200161089e919060609190911b6bffffffffffffffffffffffff1916815260140190565b604051602081830303815290604052610c67565b816000815181106108c5576108c56114d8565b6020908102919091010152604080516001808252818301909252600091816020015b60608152602001906001900390816108e757905050905061092e846040015160405160200161089e919060609190911b6bffffffffffffffffffffffff1916815260140190565b81600081518110610941576109416114d8565b6020908102919091010152835161095783610cb6565b61096083610cb6565b61097e8760600151600881111561097957610979611602565b610cda565b876080015160405160200161099795949392919061170b565b6040516020818303038152906040528051906020012092505050919050565b805160009081036109c957506000919050565b6020820151805160001a9060c0821015610833575060009392505050565b805160009081036109fa57506000919050565b600080610a0a8460200151610a6c565b8460200151610a1991906116af565b9050600084600001518560200151610a3191906116af565b90505b80821015610a6357610a4582610af4565b610a4f90836116af565b915082610a5b816116c2565b935050610a34565b50909392505050565b8051600090811a6080811015610a855750600092915050565b60b8811080610aa0575060c08110801590610aa0575060f881105b15610aae5750600192915050565b60c0811015610ae257610ac3600160b8611751565b610ad09060ff168261176a565b610adb9060016116af565b9392505050565b610ac3600160f8611751565b50919050565b80516000908190811a6080811015610b0f5760019150610b96565b60b8811015610b3557610b2360808261176a565b610b2e9060016116af565b9150610b96565b60c0811015610b625760b78103600185019450806020036101000a85510460018201810193505050610b96565b60f8811015610b7657610b2360c08261176a565b60f78103600185019450806020036101000a855104600182018101935050505b5092915050565b6000806000610baf8460200151610a6c565b90506000818560200151610bc391906116af565b90506000828660000151610bd7919061176a565b9196919550909350505050565b80600003610bf157505050565b60208110610c295782518252610c086020846116af565b9250610c156020836116af565b9150610c2260208261176a565b9050610bf1565b8015610c625760006001610c3e83602061176a565b610c4a90610100611861565b610c54919061176a565b845184518216911916178352505b505050565b60608082516001148015610c955750608083600081518110610c8b57610c8b6114d8565b016020015160f81c105b15610ca1575081610663565b610adb610cb084516080610ced565b84610ea3565b60606000610cc383610f20565b9050610adb610cd4825160c0610ced565b82610ea3565b6060610663610ce8836110d1565b610c67565b6060806038841015610d575760408051600180825281830190925290602082018180368337019050509050610d2283856116af565b601f1a60f81b81600081518110610d3b57610d3b6114d8565b60200101906001600160f81b031916908160001a905350610adb565b600060015b610d668187611883565b15610d8c5781610d75816116c2565b9250610d85905061010082611897565b9050610d5c565b610d978260016116af565b6001600160401b03811115610dae57610dae611293565b6040519080825280601f01601f191660200182016040528015610dd8576020820181803683370190505b509250610de585836116af565b610df09060376116af565b601f1a60f81b83600081518110610e0957610e096114d8565b60200101906001600160f81b031916908160001a905350600190505b818111610e9a57610100610e39828461176a565b610e4590610100611861565b610e4f9088611883565b610e5991906118ae565b601f1a60f81b838281518110610e7157610e716114d8565b60200101906001600160f81b031916908160001a90535080610e92816116c2565b915050610e25565b50509392505050565b6060806040519050835180825260208201818101602087015b81831015610ed4578051835260209283019201610ebc565b50855184518101855292509050808201602086015b81831015610f01578051835260209283019201610ee9565b508651929092011591909101601f01601f191660405250905092915050565b60608151600003610f41576040805160008082526020820190925290610b96565b6000805b8351811015611009576000848281518110610f6257610f626114d8565b60200260200101515111610fcf5760405162461bcd60e51b815260206004820152602e60248201527f416e206974656d20696e20746865206c69737420746f20626520524c5020656e60448201526d31b7b232b21034b990373ab6361760911b6064820152608401610204565b838181518110610fe157610fe16114d8565b60200260200101515182610ff591906116af565b915080611001816116c2565b915050610f45565b6000826001600160401b0381111561102357611023611293565b6040519080825280601f01601f19166020018201604052801561104d576020820181803683370190505b50600092509050602081015b85518310156107f2576000868481518110611076576110766114d8565b60200260200101519050600060208201905061109483828451611202565b8785815181106110a6576110a66114d8565b602002602001015151836110ba91906116af565b9250505082806110c9906116c2565b935050611059565b6040805160208082528183019092526060916000919060208201818036833701905050905082602082015260005b60208110156111425781818151811061111a5761111a6114d8565b01602001516001600160f81b031916600003611142578061113a816116c2565b9150506110ff565b600061114f82602061176a565b6001600160401b0381111561116657611166611293565b6040519080825280601f01601f191660200182016040528015611190576020820181803683370190505b50905060005b81518110156107f25783836111aa816116c2565b9450815181106111bc576111bc6114d8565b602001015160f81c60f81b8282815181106111d9576111d96114d8565b60200101906001600160f81b031916908160001a905350806111fa816116c2565b915050611196565b8282825b6020811061123e578151835261121d6020846116af565b925061122a6020836116af565b915061123760208261176a565b9050611206565b6000600161124d83602061176a565b61125990610100611861565b611263919061176a565b925184518416931916929092179092525050505050565b60006020828403121561128c57600080fd5b5035919050565b634e487b7160e01b600052604160045260246000fd5b60405160e081016001600160401b03811182821017156112cb576112cb611293565b60405290565b6000606082840312156112e357600080fd5b604051606081018181106001600160401b038211171561130557611305611293565b80604052508091508235815260208301356020820152604083013560ff8116811461132f57600080fd5b6040919091015292915050565b60008060008060c0858703121561135257600080fd5b84359350602085013592506040850135915061137186606087016112d1565b905092959194509250565b80356001600160a01b038116811461139357600080fd5b919050565b6000602082840312156113aa57600080fd5b610adb8261137c565b600080604083850312156113c657600080fd5b50508035926020909101359150565b600082601f8301126113e657600080fd5b81356001600160401b038082111561140057611400611293565b604051601f8301601f19908116603f0116810190828211818310171561142857611428611293565b8160405283815286602085880101111561144157600080fd5b836020870160208301376000602085830101528094505050505092915050565b60006020828403121561147357600080fd5b81356001600160401b0381111561148957600080fd5b611495848285016113d5565b949350505050565b6000602082840312156114af57600080fd5b81356001600160401b038111156114c557600080fd5b82016101208185031215610adb57600080fd5b634e487b7160e01b600052603260045260246000fd5b80516020808301519190811015610aee5760001960209190910360031b1b16919050565b80356001600160401b038116811461139357600080fd5b80356009811061139357600080fd5b6000610120823603121561154b57600080fd5b6115536112a9565b61155c83611512565b815261156a6020840161137c565b602082015261157b6040840161137c565b604082015261158c60608401611529565b606082015260808301356001600160401b038111156115aa57600080fd5b6115b6368286016113d5565b6080830152506115c93660a085016112d1565b60a08201526115db6101008401611512565b60c082015292915050565b6000606082840312156115f857600080fd5b610adb83836112d1565b634e487b7160e01b600052602160045260246000fd5b60006020828403121561162a57600080fd5b610adb82611529565b6000808335601e1984360301811261164a57600080fd5b8301803591506001600160401b0382111561166457600080fd5b60200191503681900382131561167957600080fd5b9250929050565b634e487b7160e01b600052601160045260246000fd5b60ff818116838216019081111561066357610663611680565b8082018082111561066357610663611680565b6000600182016116d4576116d4611680565b5060010190565b6000815160005b818110156116fc57602081850181015186830152016116e2565b50600093019283525090919050565b60c086901b6001600160c01b0319168152600061174661174061173a611734600886018a6116db565b886116db565b866116db565b846116db565b979650505050505050565b60ff828116828216039081111561066357610663611680565b8181038181111561066357610663611680565b600181815b808511156117b857816000190482111561179e5761179e611680565b808516156117ab57918102915b93841c9390800290611782565b509250929050565b6000826117cf57506001610663565b816117dc57506000610663565b81600181146117f257600281146117fc57611818565b6001915050610663565b60ff84111561180d5761180d611680565b50506001821b610663565b5060208310610133831016604e8410600b841016171561183b575081810a610663565b611845838361177d565b806000190482111561185957611859611680565b029392505050565b6000610adb83836117c0565b634e487b7160e01b600052601260045260246000fd5b6000826118925761189261186d565b500490565b808202811582820484141761066357610663611680565b6000826118bd576118bd61186d565b50069056fea264697066735822122090121a8a30f1d44bf5fca4acc291907c4c355766d3de644f86d3f71f9fadc80164736f6c63430008110033",
    "linkReferences": {}
  },
  "methodIdentifiers": {
    "computeRootHashes(bytes32,bytes32)": "9228a046",
    "computers(address)": "eb021d5c",
    "decodeComputeVerification(bytes)": "c6bb3d5c",
    "hasTx(bytes32)": "2d200a6f",
    "submitComputeCommitment(bytes32,bytes32,bytes32,(bytes32,bytes32,uint8))": "59fb68ac",
    "submitComputeVerification((uint64,address,address,uint8,bytes,(bytes32,bytes32,uint8),uint64))": "f78b6c97",
    "verifiers(address)": "6c824487"
  },
  "id": 23
}