{"abi":[{"type":"constructor","inputs":[{"name":"_computers","type":"address[]","internalType":"address[]"},{"name":"_verifiers","type":"address[]","internalType":"address[]"}],"stateMutability":"nonpayable"},{"type":"function","name":"computeRootHashes","inputs":[{"name":"","type":"bytes32","internalType":"bytes32"},{"name":"","type":"bytes32","internalType":"bytes32"}],"outputs":[{"name":"","type":"bytes32","internalType":"bytes32"}],"stateMutability":"view"},{"type":"function","name":"computers","inputs":[{"name":"","type":"address","internalType":"address"}],"outputs":[{"name":"","type":"bool","internalType":"bool"}],"stateMutability":"view"},{"type":"function","name":"decodeJobVerification","inputs":[{"name":"rlpData","type":"bytes","internalType":"bytes"}],"outputs":[{"name":"","type":"tuple","internalType":"struct JobManager.JobVerification","components":[{"name":"job_run_assignment_tx_hash","type":"bytes32","internalType":"bytes32"},{"name":"verification_result","type":"bool","internalType":"bool"}]}],"stateMutability":"pure"},{"type":"function","name":"hasTx","inputs":[{"name":"","type":"bytes32","internalType":"bytes32"}],"outputs":[{"name":"","type":"bool","internalType":"bool"}],"stateMutability":"view"},{"type":"function","name":"submitCreateCommitment","inputs":[{"name":"jobRunAssignTxHash","type":"bytes32","internalType":"bytes32"},{"name":"createCommitTxHash","type":"bytes32","internalType":"bytes32"},{"name":"computeRootHash","type":"bytes32","internalType":"bytes32"},{"name":"sig","type":"tuple","internalType":"struct JobManager.Signature","components":[{"name":"s","type":"bytes32","internalType":"bytes32"},{"name":"r","type":"bytes32","internalType":"bytes32"},{"name":"r_id","type":"uint8","internalType":"uint8"}]}],"outputs":[],"stateMutability":"nonpayable"},{"type":"function","name":"submitJobVerification","inputs":[{"name":"_tx","type":"tuple","internalType":"struct JobManager.OpenrankTx","components":[{"name":"nonce","type":"uint64","internalType":"uint64"},{"name":"from","type":"address","internalType":"address"},{"name":"to","type":"address","internalType":"address"},{"name":"kind","type":"uint8","internalType":"enum JobManager.TxKind"},{"name":"body","type":"bytes","internalType":"bytes"},{"name":"signature","type":"tuple","internalType":"struct JobManager.Signature","components":[{"name":"s","type":"bytes32","internalType":"bytes32"},{"name":"r","type":"bytes32","internalType":"bytes32"},{"name":"r_id","type":"uint8","internalType":"uint8"}]},{"name":"sequence_number","type":"uint64","internalType":"uint64"}]}],"outputs":[],"stateMutability":"nonpayable"},{"type":"function","name":"verifiers","inputs":[{"name":"","type":"address","internalType":"address"}],"outputs":[{"name":"","type":"bool","internalType":"bool"}],"stateMutability":"view"},{"type":"event","name":"JobCommitted","inputs":[{"name":"txHash","type":"bytes32","indexed":false,"internalType":"bytes32"},{"name":"computer","type":"address","indexed":true,"internalType":"address"}],"anonymous":false},{"type":"event","name":"JobVerified","inputs":[{"name":"txHash","type":"bytes32","indexed":false,"internalType":"bytes32"},{"name":"verifier","type":"address","indexed":true,"internalType":"address"}],"anonymous":false}],"bytecode":{"object":"0x60806040523480156200001157600080fd5b5060405162001bac38038062001bac8339810160408190526200003491620001fa565b60005b8251811015620000a25760016000808584815181106200005b576200005b62000264565b6020908102919091018101516001600160a01b03168252810191909152604001600020805460ff19169115159190911790558062000099816200027a565b91505062000037565b5060005b815181101562000111576001806000848481518110620000ca57620000ca62000264565b6020908102919091018101516001600160a01b03168252810191909152604001600020805460ff19169115159190911790558062000108816200027a565b915050620000a6565b505050620002a2565b634e487b7160e01b600052604160045260246000fd5b80516001600160a01b03811681146200014857600080fd5b919050565b600082601f8301126200015f57600080fd5b815160206001600160401b03808311156200017e576200017e6200011a565b8260051b604051601f19603f83011681018181108482111715620001a657620001a66200011a565b604052938452858101830193838101925087851115620001c557600080fd5b83870191505b84821015620001ef57620001df8262000130565b83529183019190830190620001cb565b979650505050505050565b600080604083850312156200020e57600080fd5b82516001600160401b03808211156200022657600080fd5b62000234868387016200014d565b935060208501519150808211156200024b57600080fd5b506200025a858286016200014d565b9150509250929050565b634e487b7160e01b600052603260045260246000fd5b6000600182016200029b57634e487b7160e01b600052601160045260246000fd5b5060010190565b6118fa80620002b26000396000f3fe608060405234801561001057600080fd5b506004361061007d5760003560e01c8063817e74181161005b578063817e7418146100f25780639228a04614610105578063b189aa2e1461013e578063eb021d5c1461016e57600080fd5b806324407e82146100825780632d200a6f146100975780636c824487146100cf575b600080fd5b61009561009036600461127c565b610191565b005b6100ba6100a53660046112b7565b60036020526000908152604090205460ff1681565b60405190151581526020015b60405180910390f35b6100ba6100dd3660046112ec565b60016020526000908152604090205460ff1681565b6100956101003660046113b0565b6103c8565b6101306101133660046113f0565b600260209081526000928352604080842090915290825290205481565b6040519081526020016100c6565b61015161014c36600461149e565b6104bc565b6040805182518152602092830151151592810192909252016100c6565b6100ba61017c3660046112ec565b60006020819052908152604090205460ff1681565b60006101a461019f83611500565b61058d565b905060006101ba36849003840160a085016115ae565b905060006101c88383610706565b6001600160a01b03811660009081526001602052604090205490915060ff166102385760405162461bcd60e51b815260206004820152601860248201527f5665726966696572206e6f742077686974656c6973746564000000000000000060448201526064015b60405180910390fd5b600661024a60808601606087016115e0565b600881111561025b5761025b6115ca565b146102a85760405162461bcd60e51b815260206004820152601b60248201527f4578706563746564204a6f62566572696669636174696f6e2054580000000000604482015260640161022f565b60006102f46102ba60808701876115fb565b8080601f0160208091040260200160405190810160405280939291908181526020018383808284376000920191909152506104bc92505050565b805160009081526003602052604090205490915060ff166103635760405162461bcd60e51b8152602060048201526024808201527f4d61746368696e67204a6f6252756e41737369676e6d656e74205458206d697360448201526373696e6760e01b606482015260840161022f565b60008481526003602052604090819020805460ff19166001179055516001600160a01b038316907f8f711588f981a99b3245dbf16e561e933d698978e65106dda3efe5c8cba45388906103b99087815260200190565b60405180910390a25050505050565b60006103d48483610706565b6001600160a01b03811660009081526020819052604090205490915060ff1661043f5760405162461bcd60e51b815260206004820152601860248201527f436f6d7075746572206e6f742077686974656c69737465640000000000000000604482015260640161022f565b60008581526002602090815260408083208784528252808320869055878352600382528083208054600160ff1991821681179092558885529382902080549094161790925590518581526001600160a01b038316917fc0efabf53cae15d6b40c56eea5c6fe79c0d4421addb7e81b8b3845dcde7a10c991016103b9565b604080518082018252600080825260208083018290528351808501855282815281018290528351808501909452845184528481019084015290916104ff906107e4565b905060405180604001604052806105516105328460008151811061052557610525611648565b60200260200101516107e4565b60008151811061054457610544611648565b60200260200101516108f9565b61055a9061165e565b81526020016105828360018151811061057557610575611648565b6020026020010151610976565b151590529392505050565b604080516001808252818301909252600091829190816020015b60608152602001906001900390816105a757905050905061060283602001516040516020016105ee919060609190911b6bffffffffffffffffffffffff1916815260140190565b6040516020818303038152906040526109b8565b8160008151811061061557610615611648565b6020908102919091010152604080516001808252818301909252600091816020015b606081526020019060019003908161063757905050905061067e84604001516040516020016105ee919060609190911b6bffffffffffffffffffffffff1916815260140190565b8160008151811061069157610691611648565b602090810291909101015283516106a783610a0e565b6106b083610a0e565b6106ce876060015160088111156106c9576106c96115ca565b610a32565b87608001516040516020016106e79594939291906116b2565b6040516020818303038152906040528051906020012092505050919050565b6000806000808460400151601b61071d919061170e565b60208087015187516040805160008082529481018083528c905260ff861691810191909152606081018390526080810182905293965090945092509060019060a0016020604051602081039080840390855afa158015610781573d6000803e3d6000fd5b5050604051601f1901519150506001600160a01b0381166107d85760405162461bcd60e51b8152602060048201526011602482015270496e76616c6964207369676e617475726560781b604482015260640161022f565b93505050505b92915050565b60606107ef82610a45565b6107f857600080fd5b600061080383610a76565b90506000816001600160401b0381111561081f5761081f611307565b60405190808252806020026020018201604052801561086457816020015b604080518082019091526000808252602082015281526020019060019003908161083d5790505b50905060006108768560200151610afb565b85602001516108859190611727565b90506000805b848110156108ee5761089c83610b7c565b91506040518060400160405280838152602001848152508482815181106108c5576108c5611648565b60209081029190910101526108da8284611727565b9250806108e68161173a565b91505061088b565b509195945050505050565b805160609061090757600080fd5b60008061091384610c25565b915091506000816001600160401b0381111561093157610931611307565b6040519080825280601f01601f19166020018201604052801561095b576020820181803683370190505b5090506020810161096d848285610c6c565b50949350505050565b805160009060011461098757600080fd5b6020820151805160001a9081158061099f5750608082145b156109ae575060009392505050565b5060019392505050565b606080825160011480156109e657506080836000815181106109dc576109dc611648565b016020015160f81c105b156109f25750816107de565b610a07610a0184516080610cef565b84610ea5565b9392505050565b60606000610a1b83610f22565b9050610a07610a2c825160c0610cef565b82610ea5565b60606107de610a40836110d3565b6109b8565b80516000908103610a5857506000919050565b6020820151805160001a9060c08210156109ae575060009392505050565b80516000908103610a8957506000919050565b600080610a998460200151610afb565b8460200151610aa89190611727565b9050600084600001518560200151610ac09190611727565b90505b80821015610af257610ad482610b7c565b610ade9083611727565b915082610aea8161173a565b935050610ac3565b50909392505050565b8051600090811a6080811015610b145750600092915050565b60b8811080610b2f575060c08110801590610b2f575060f881105b15610b3d5750600192915050565b60c0811015610b6a57610b52600160b8611753565b610b5f9060ff168261176c565b610a07906001611727565b610b52600160f8611753565b50919050565b80516000908190811a6080811015610b975760019150610c1e565b60b8811015610bbd57610bab60808261176c565b610bb6906001611727565b9150610c1e565b60c0811015610bea5760b78103600185019450806020036101000a85510460018201810193505050610c1e565b60f8811015610bfe57610bab60c08261176c565b60f78103600185019450806020036101000a855104600182018101935050505b5092915050565b6000806000610c378460200151610afb565b90506000818560200151610c4b9190611727565b90506000828660000151610c5f919061176c565b9196919550909350505050565b80600003610c7957505050565b60208110610cb15782518252610c90602084611727565b9250610c9d602083611727565b9150610caa60208261176c565b9050610c79565b8015610cea5760006001610cc683602061176c565b610cd290610100611863565b610cdc919061176c565b845184518216911916178352505b505050565b6060806038841015610d595760408051600180825281830190925290602082018180368337019050509050610d248385611727565b601f1a60f81b81600081518110610d3d57610d3d611648565b60200101906001600160f81b031916908160001a905350610a07565b600060015b610d688187611885565b15610d8e5781610d778161173a565b9250610d87905061010082611899565b9050610d5e565b610d99826001611727565b6001600160401b03811115610db057610db0611307565b6040519080825280601f01601f191660200182016040528015610dda576020820181803683370190505b509250610de78583611727565b610df2906037611727565b601f1a60f81b83600081518110610e0b57610e0b611648565b60200101906001600160f81b031916908160001a905350600190505b818111610e9c57610100610e3b828461176c565b610e4790610100611863565b610e519088611885565b610e5b91906118b0565b601f1a60f81b838281518110610e7357610e73611648565b60200101906001600160f81b031916908160001a90535080610e948161173a565b915050610e27565b50509392505050565b6060806040519050835180825260208201818101602087015b81831015610ed6578051835260209283019201610ebe565b50855184518101855292509050808201602086015b81831015610f03578051835260209283019201610eeb565b508651929092011591909101601f01601f191660405250905092915050565b60608151600003610f43576040805160008082526020820190925290610c1e565b6000805b835181101561100b576000848281518110610f6457610f64611648565b60200260200101515111610fd15760405162461bcd60e51b815260206004820152602e60248201527f416e206974656d20696e20746865206c69737420746f20626520524c5020656e60448201526d31b7b232b21034b990373ab6361760911b606482015260840161022f565b838181518110610fe357610fe3611648565b60200260200101515182610ff79190611727565b9150806110038161173a565b915050610f47565b6000826001600160401b0381111561102557611025611307565b6040519080825280601f01601f19166020018201604052801561104f576020820181803683370190505b50600092509050602081015b855183101561096d57600086848151811061107857611078611648565b60200260200101519050600060208201905061109683828451611204565b8785815181106110a8576110a8611648565b602002602001015151836110bc9190611727565b9250505082806110cb9061173a565b93505061105b565b6040805160208082528183019092526060916000919060208201818036833701905050905082602082015260005b60208110156111445781818151811061111c5761111c611648565b01602001516001600160f81b031916600003611144578061113c8161173a565b915050611101565b600061115182602061176c565b6001600160401b0381111561116857611168611307565b6040519080825280601f01601f191660200182016040528015611192576020820181803683370190505b50905060005b815181101561096d5783836111ac8161173a565b9450815181106111be576111be611648565b602001015160f81c60f81b8282815181106111db576111db611648565b60200101906001600160f81b031916908160001a905350806111fc8161173a565b915050611198565b8282825b60208110611240578151835261121f602084611727565b925061122c602083611727565b915061123960208261176c565b9050611208565b6000600161124f83602061176c565b61125b90610100611863565b611265919061176c565b925184518416931916929092179092525050505050565b60006020828403121561128e57600080fd5b81356001600160401b038111156112a457600080fd5b82016101208185031215610a0757600080fd5b6000602082840312156112c957600080fd5b5035919050565b80356001600160a01b03811681146112e757600080fd5b919050565b6000602082840312156112fe57600080fd5b610a07826112d0565b634e487b7160e01b600052604160045260246000fd5b60405160e081016001600160401b038111828210171561133f5761133f611307565b60405290565b60006060828403121561135757600080fd5b604051606081018181106001600160401b038211171561137957611379611307565b80604052508091508235815260208301356020820152604083013560ff811681146113a357600080fd5b6040919091015292915050565b60008060008060c085870312156113c657600080fd5b8435935060208501359250604085013591506113e58660608701611345565b905092959194509250565b6000806040838503121561140357600080fd5b50508035926020909101359150565b600082601f83011261142357600080fd5b81356001600160401b038082111561143d5761143d611307565b604051601f8301601f19908116603f0116810190828211818310171561146557611465611307565b8160405283815286602085880101111561147e57600080fd5b836020870160208301376000602085830101528094505050505092915050565b6000602082840312156114b057600080fd5b81356001600160401b038111156114c657600080fd5b6114d284828501611412565b949350505050565b80356001600160401b03811681146112e757600080fd5b8035600981106112e757600080fd5b6000610120823603121561151357600080fd5b61151b61131d565b611524836114da565b8152611532602084016112d0565b6020820152611543604084016112d0565b6040820152611554606084016114f1565b606082015260808301356001600160401b0381111561157257600080fd5b61157e36828601611412565b6080830152506115913660a08501611345565b60a08201526115a361010084016114da565b60c082015292915050565b6000606082840312156115c057600080fd5b610a078383611345565b634e487b7160e01b600052602160045260246000fd5b6000602082840312156115f257600080fd5b610a07826114f1565b6000808335601e1984360301811261161257600080fd5b8301803591506001600160401b0382111561162c57600080fd5b60200191503681900382131561164157600080fd5b9250929050565b634e487b7160e01b600052603260045260246000fd5b80516020808301519190811015610b765760001960209190910360031b1b16919050565b6000815160005b818110156116a35760208185018101518683015201611689565b50600093019283525090919050565b60c086901b6001600160c01b031916815260006116ed6116e76116e16116db600886018a611682565b88611682565b86611682565b84611682565b979650505050505050565b634e487b7160e01b600052601160045260246000fd5b60ff81811683821601908111156107de576107de6116f8565b808201808211156107de576107de6116f8565b60006001820161174c5761174c6116f8565b5060010190565b60ff82811682821603908111156107de576107de6116f8565b818103818111156107de576107de6116f8565b600181815b808511156117ba5781600019048211156117a0576117a06116f8565b808516156117ad57918102915b93841c9390800290611784565b509250929050565b6000826117d1575060016107de565b816117de575060006107de565b81600181146117f457600281146117fe5761181a565b60019150506107de565b60ff84111561180f5761180f6116f8565b50506001821b6107de565b5060208310610133831016604e8410600b841016171561183d575081810a6107de565b611847838361177f565b806000190482111561185b5761185b6116f8565b029392505050565b6000610a0783836117c2565b634e487b7160e01b600052601260045260246000fd5b6000826118945761189461186f565b500490565b80820281158282048414176107de576107de6116f8565b6000826118bf576118bf61186f565b50069056fea2646970667358221220f3fdccb8ebb96398bd34ec2a68b6ced9b2bc820c098666604e5f3bc4bfef4fbe64736f6c63430008110033","linkReferences":{}},"methodIdentifiers":{"computeRootHashes(bytes32,bytes32)":"9228a046","computers(address)":"eb021d5c","decodeJobVerification(bytes)":"b189aa2e","hasTx(bytes32)":"2d200a6f","submitCreateCommitment(bytes32,bytes32,bytes32,(bytes32,bytes32,uint8))":"817e7418","submitJobVerification((uint64,address,address,uint8,bytes,(bytes32,bytes32,uint8),uint64))":"24407e82","verifiers(address)":"6c824487"},"id":25}