{"abi":[{"type":"constructor","inputs":[{"name":"_blockBuilders","type":"address[]","internalType":"address[]"},{"name":"_computers","type":"address[]","internalType":"address[]"},{"name":"_verifiers","type":"address[]","internalType":"address[]"}],"stateMutability":"nonpayable"},{"type":"function","name":"blockBuilders","inputs":[{"name":"","type":"address","internalType":"address"}],"outputs":[{"name":"","type":"bool","internalType":"bool"}],"stateMutability":"view"},{"type":"function","name":"computers","inputs":[{"name":"","type":"address","internalType":"address"}],"outputs":[{"name":"","type":"bool","internalType":"bool"}],"stateMutability":"view"},{"type":"function","name":"decodeCreateCommitment","inputs":[{"name":"rlpData","type":"bytes","internalType":"bytes"}],"outputs":[{"name":"","type":"tuple","internalType":"struct JobManager.CreateCommitment","components":[{"name":"job_run_assignment_tx_hash","type":"bytes32","internalType":"bytes32"},{"name":"lt_root_hash","type":"bytes32","internalType":"bytes32"},{"name":"compute_root_hash","type":"bytes32","internalType":"bytes32"},{"name":"scores_tx_hashes","type":"bytes32[]","internalType":"bytes32[]"},{"name":"new_trust_tx_hashes","type":"bytes32[]","internalType":"bytes32[]"},{"name":"new_seed_tx_hashes","type":"bytes32[]","internalType":"bytes32[]"}]}],"stateMutability":"pure"},{"type":"function","name":"decodeJobRunAssignment","inputs":[{"name":"rlpData","type":"bytes","internalType":"bytes"}],"outputs":[{"name":"","type":"tuple","internalType":"struct JobManager.JobRunAssignment","components":[{"name":"job_run_request_tx_hash","type":"bytes32","internalType":"bytes32"},{"name":"assigned_compute_node","type":"bytes20","internalType":"bytes20"},{"name":"assigned_verifier_node","type":"bytes20","internalType":"bytes20"}]}],"stateMutability":"pure"},{"type":"function","name":"decodeJobRunRequest","inputs":[{"name":"rlpData","type":"bytes","internalType":"bytes"}],"outputs":[{"name":"","type":"tuple","internalType":"struct JobManager.JobRunRequest","components":[{"name":"domain_id","type":"uint64","internalType":"uint64"},{"name":"block_height","type":"uint32","internalType":"uint32"},{"name":"job_id","type":"bytes32","internalType":"bytes32"}]}],"stateMutability":"pure"},{"type":"function","name":"decodeJobVerification","inputs":[{"name":"rlpData","type":"bytes","internalType":"bytes"}],"outputs":[{"name":"","type":"tuple","internalType":"struct JobManager.JobVerification","components":[{"name":"job_run_assignment_tx_hash","type":"bytes32","internalType":"bytes32"},{"name":"verification_result","type":"bool","internalType":"bool"}]}],"stateMutability":"pure"},{"type":"function","name":"hasTx","inputs":[{"name":"","type":"bytes32","internalType":"bytes32"}],"outputs":[{"name":"","type":"bool","internalType":"bool"}],"stateMutability":"view"},{"type":"function","name":"sendJobRunRequest","inputs":[{"name":"transaction","type":"tuple","internalType":"struct JobManager.OpenrankTx","components":[{"name":"nonce","type":"uint64","internalType":"uint64"},{"name":"from","type":"address","internalType":"address"},{"name":"to","type":"address","internalType":"address"},{"name":"kind","type":"uint8","internalType":"enum JobManager.TxKind"},{"name":"body","type":"bytes","internalType":"bytes"},{"name":"signature","type":"tuple","internalType":"struct JobManager.Signature","components":[{"name":"s","type":"bytes32","internalType":"bytes32"},{"name":"r","type":"bytes32","internalType":"bytes32"},{"name":"r_id","type":"uint8","internalType":"uint8"}]},{"name":"sequence_number","type":"uint64","internalType":"uint64"}]}],"outputs":[],"stateMutability":"nonpayable"},{"type":"function","name":"submitCreateCommitment","inputs":[{"name":"transaction","type":"tuple","internalType":"struct JobManager.OpenrankTx","components":[{"name":"nonce","type":"uint64","internalType":"uint64"},{"name":"from","type":"address","internalType":"address"},{"name":"to","type":"address","internalType":"address"},{"name":"kind","type":"uint8","internalType":"enum JobManager.TxKind"},{"name":"body","type":"bytes","internalType":"bytes"},{"name":"signature","type":"tuple","internalType":"struct JobManager.Signature","components":[{"name":"s","type":"bytes32","internalType":"bytes32"},{"name":"r","type":"bytes32","internalType":"bytes32"},{"name":"r_id","type":"uint8","internalType":"uint8"}]},{"name":"sequence_number","type":"uint64","internalType":"uint64"}]}],"outputs":[],"stateMutability":"nonpayable"},{"type":"function","name":"submitJobRunAssignment","inputs":[{"name":"transaction","type":"tuple","internalType":"struct JobManager.OpenrankTx","components":[{"name":"nonce","type":"uint64","internalType":"uint64"},{"name":"from","type":"address","internalType":"address"},{"name":"to","type":"address","internalType":"address"},{"name":"kind","type":"uint8","internalType":"enum JobManager.TxKind"},{"name":"body","type":"bytes","internalType":"bytes"},{"name":"signature","type":"tuple","internalType":"struct JobManager.Signature","components":[{"name":"s","type":"bytes32","internalType":"bytes32"},{"name":"r","type":"bytes32","internalType":"bytes32"},{"name":"r_id","type":"uint8","internalType":"uint8"}]},{"name":"sequence_number","type":"uint64","internalType":"uint64"}]}],"outputs":[],"stateMutability":"nonpayable"},{"type":"function","name":"submitJobVerification","inputs":[{"name":"transaction","type":"tuple","internalType":"struct JobManager.OpenrankTx","components":[{"name":"nonce","type":"uint64","internalType":"uint64"},{"name":"from","type":"address","internalType":"address"},{"name":"to","type":"address","internalType":"address"},{"name":"kind","type":"uint8","internalType":"enum JobManager.TxKind"},{"name":"body","type":"bytes","internalType":"bytes"},{"name":"signature","type":"tuple","internalType":"struct JobManager.Signature","components":[{"name":"s","type":"bytes32","internalType":"bytes32"},{"name":"r","type":"bytes32","internalType":"bytes32"},{"name":"r_id","type":"uint8","internalType":"uint8"}]},{"name":"sequence_number","type":"uint64","internalType":"uint64"}]}],"outputs":[],"stateMutability":"nonpayable"},{"type":"function","name":"txs","inputs":[{"name":"","type":"bytes32","internalType":"bytes32"}],"outputs":[{"name":"nonce","type":"uint64","internalType":"uint64"},{"name":"from","type":"address","internalType":"address"},{"name":"to","type":"address","internalType":"address"},{"name":"kind","type":"uint8","internalType":"enum JobManager.TxKind"},{"name":"body","type":"bytes","internalType":"bytes"},{"name":"signature","type":"tuple","internalType":"struct JobManager.Signature","components":[{"name":"s","type":"bytes32","internalType":"bytes32"},{"name":"r","type":"bytes32","internalType":"bytes32"},{"name":"r_id","type":"uint8","internalType":"uint8"}]},{"name":"sequence_number","type":"uint64","internalType":"uint64"}],"stateMutability":"view"},{"type":"function","name":"verifiers","inputs":[{"name":"","type":"address","internalType":"address"}],"outputs":[{"name":"","type":"bool","internalType":"bool"}],"stateMutability":"view"},{"type":"event","name":"JobAssigned","inputs":[{"name":"txHash","type":"bytes32","indexed":false,"internalType":"bytes32"},{"name":"computer","type":"address","indexed":false,"internalType":"address"},{"name":"verifier","type":"address","indexed":false,"internalType":"address"}],"anonymous":false},{"type":"event","name":"JobCommitted","inputs":[{"name":"txHash","type":"bytes32","indexed":false,"internalType":"bytes32"}],"anonymous":false},{"type":"event","name":"JobRunRequested","inputs":[{"name":"txHash","type":"bytes32","indexed":false,"internalType":"bytes32"},{"name":"jobId","type":"bytes32","indexed":false,"internalType":"bytes32"}],"anonymous":false},{"type":"event","name":"JobVerified","inputs":[{"name":"txHash","type":"bytes32","indexed":false,"internalType":"bytes32"},{"name":"isVerified","type":"bool","indexed":false,"internalType":"bool"}],"anonymous":false}],"bytecode":{"object":"0x60806040523480156200001157600080fd5b50604051620030ab380380620030ab83398101604081905262000034916200026b565b60005b8351811015620000a25760016000808684815181106200005b576200005b620002fc565b6020908102919091018101516001600160a01b03168252810191909152604001600020805460ff191691151591909117905580620000998162000312565b91505062000037565b5060005b825181101562000111576001806000858481518110620000ca57620000ca620002fc565b6020908102919091018101516001600160a01b03168252810191909152604001600020805460ff191691151591909117905580620001088162000312565b915050620000a6565b5060005b815181101562000181576001600260008484815181106200013a576200013a620002fc565b6020908102919091018101516001600160a01b03168252810191909152604001600020805460ff191691151591909117905580620001788162000312565b91505062000115565b505050506200033a565b634e487b7160e01b600052604160045260246000fd5b80516001600160a01b0381168114620001b957600080fd5b919050565b600082601f830112620001d057600080fd5b815160206001600160401b0380831115620001ef57620001ef6200018b565b8260051b604051601f19603f830116810181811084821117156200021757620002176200018b565b6040529384528581018301938381019250878511156200023657600080fd5b83870191505b8482101562000260576200025082620001a1565b835291830191908301906200023c565b979650505050505050565b6000806000606084860312156200028157600080fd5b83516001600160401b03808211156200029957600080fd5b620002a787838801620001be565b94506020860151915080821115620002be57600080fd5b620002cc87838801620001be565b93506040860151915080821115620002e357600080fd5b50620002f286828701620001be565b9150509250925092565b634e487b7160e01b600052603260045260246000fd5b6000600182016200033357634e487b7160e01b600052601160045260246000fd5b5060010190565b612d61806200034a6000396000f3fe608060405234801561001057600080fd5b50600436106100cf5760003560e01c80638628192a1161008c578063b189aa2e11610066578063b189aa2e14610217578063e79fbb5114610247578063e8fd67951461028e578063eb021d5c146102a157600080fd5b80638628192a1461018d57806389b8482c146101ad578063986ba392146101f157600080fd5b806313b419f6146100d457806320710d18146100e957806324407e82146100fc5780632d200a6f1461010f57806363cebe62146101475780636c8244871461016a575b600080fd5b6100e76100e2366004612119565b6102c4565b005b6100e76100f73660046123a2565b610649565b6100e761010a366004612119565b610830565b61013261011d3660046123d6565b60046020526000908152604090205460ff1681565b60405190151581526020015b60405180910390f35b6101326101553660046123ef565b60006020819052908152604090205460ff1681565b6101326101783660046123ef565b60026020526000908152604090205460ff1681565b6101a061019b36600461240c565b610a72565b60405161013e919061247b565b6101c06101bb36600461240c565b610dd6565b6040805182516001600160401b0316815260208084015163ffffffff1690820152918101519082015260600161013e565b6102046101ff3660046123d6565b610eaa565b60405161013e9796959493929190612534565b61022a61022536600461240c565b610fbc565b60408051825181526020928301511515928101929092520161013e565b61025a61025536600461240c565b611061565b60408051825181526020808401516001600160601b031990811691830191909152928201519092169082015260600161013e565b6100e761029c366004612119565b61114a565b6101326102af3660046123ef565b60016020526000908152604090205460ff1681565b60006102d76102d2836125ee565b61136c565b905060006102ed36849003840160a085016125fa565b6020808201518251604080850151905194955060009461030d9401612616565b6040516020818303038152906040529050600061032a84836114db565b6001600160a01b03811660009081526020819052604090205490915060ff1661039a5760405162461bcd60e51b815260206004820152601c60248201527f426c6f636b4275696c646572206e6f742077686974656c69737465640000000060448201526064015b60405180910390fd5b60036103ac6080870160608801612639565b60088111156103bd576103bd6124fa565b1461040a5760405162461bcd60e51b815260206004820152601c60248201527f4578706563746564204a6f6252756e41737369676e6d656e74205458000000006044820152606401610391565b600061045661041c6080880188612656565b8080601f01602080910402602001604051908101604052809392919081815260200183838082843760009201919091525061106192505050565b805160009081526004602052604090205490915060ff166104c35760405162461bcd60e51b815260206004820152602160248201527f4d61746368696e67204a6f6252756e52657175657374205458206d697373696e6044820152606760f81b6064820152608401610391565b602080820151604080840151606092831c600081815260019095529190932054909290911c9060ff166105425760405162461bcd60e51b815260206004820152602160248201527f41737369676e656420636f6d7075746572206e6f742077686974656c697374656044820152601960fa1b6064820152608401610391565b6001600160a01b03811660009081526002602052604090205460ff166105b45760405162461bcd60e51b815260206004820152602160248201527f41737369676e6564207665726966696572206e6f742077686974656c697374656044820152601960fa1b6064820152608401610391565b600087815260036020526040902088906105ce828261286d565b505060008781526004602052604090819020805460ff19166001179055517f9e1c0537a7aedaab5b94abf6a149b43527c7b9ecdcad96cbc0f419465a647f6390610637908990859085909283526001600160a01b03918216602084015216604082015260600190565b60405180910390a15050505050505050565b60006106548261136c565b905060028260600151600881111561066e5761066e6124fa565b146106bb5760405162461bcd60e51b815260206004820152601960248201527f4578706563746564204a6f6252756e52657175657374205458000000000000006044820152606401610391565b60006106ca8360800151610dd6565b60008381526003602090815260409182902086518154928801516001600160a01b03908116600160401b026001600160e01b03199094166001600160401b039092169190911792909217815591860151600183018054919092166001600160a01b03198216811783556060880151949550879492916001600160a81b03191617600160a01b836008811115610761576107616124fa565b02179055506080820151600282019061077a9082612972565b5060a08201518051600383015560208082015160048085019190915560409283015160058501805460ff90921660ff1992831617905560c090950151600690940180546001600160401b0390951667ffffffffffffffff19909516949094179093556000868152928152918190208054909316600117909255828201518251858152918201527f2ddc0b96afe87b93b42f8d2061904f29fbad4723d6922583b130d3a3107acca8910160405180910390a1505050565b600061083e6102d2836125ee565b9050600061085436849003840160a085016125fa565b602080820151825160408085015190519495506000946108749401612616565b6040516020818303038152906040529050600061089184836114db565b6001600160a01b03811660009081526002602052604090205490915060ff166108fc5760405162461bcd60e51b815260206004820152601860248201527f5665726966696572206e6f742077686974656c697374656400000000000000006044820152606401610391565b600661090e6080870160608801612639565b600881111561091f5761091f6124fa565b1461096c5760405162461bcd60e51b815260206004820152601b60248201527f4578706563746564204a6f62566572696669636174696f6e20545800000000006044820152606401610391565b60006109b861097e6080880188612656565b8080601f016020809104026020016040519081016040528093929190818152602001838380828437600092019190915250610fbc92505050565b805160009081526004602052604090205490915060ff166109eb5760405162461bcd60e51b815260040161039190612a31565b60008581526003602052604090208690610a05828261286d565b5050600085815260046020908152604091829020805460ff1916600117905582015190517f0188557fc3102952e9b39bfeaffe8d5ff704e4fa43b54ec0359f0eb7ba50a29191610a62918891909182521515602082015260400190565b60405180910390a1505050505050565b6040805160c0810182526000808252602080830182905282840182905260608084018190526080840181905260a0840152835180850185528281528101829052835180850190945284518452848101908401529091610ad0906115b3565b90506000610af782600381518110610aea57610aea612a75565b60200260200101516115b3565b9050600081516001600160401b03811115610b1457610b14612154565b604051908082528060200260200182016040528015610b3d578160200160208202803683370190505b50905060005b8251811015610bbb57610b83610b64848381518110610aea57610aea612a75565b600081518110610b7657610b76612a75565b60200260200101516116c8565b610b8c90612a8b565b828281518110610b9e57610b9e612a75565b602090810291909101015280610bb381612ac5565b915050610b43565b506000610bd484600481518110610aea57610aea612a75565b9050600081516001600160401b03811115610bf157610bf1612154565b604051908082528060200260200182016040528015610c1a578160200160208202803683370190505b50905060005b8251811015610c7957610c41610b64848381518110610aea57610aea612a75565b610c4a90612a8b565b828281518110610c5c57610c5c612a75565b602090810291909101015280610c7181612ac5565b915050610c20565b506000610c9286600581518110610aea57610aea612a75565b9050600081516001600160401b03811115610caf57610caf612154565b604051908082528060200260200182016040528015610cd8578160200160208202803683370190505b50905060005b8251811015610d3757610cff610b64848381518110610aea57610aea612a75565b610d0890612a8b565b828281518110610d1a57610d1a612a75565b602090810291909101015280610d2f81612ac5565b915050610cde565b506040518060c00160405280610d5c610b648a600081518110610aea57610aea612a75565b610d6590612a8b565b8152602001610d83610b648a600181518110610aea57610aea612a75565b610d8c90612a8b565b8152602001610daa610b648a600281518110610aea57610aea612a75565b610db390612a8b565b815260200186815260200184815260200182815250975050505050505050919050565b6040805160608101825260008082526020808301829052828401829052835180850185528281528101829052835180850190945284518452848101908401529091610e20906115b3565b90506040518060600160405280610e5083600081518110610e4357610e43612a75565b6020026020010151611745565b6001600160401b03168152602001610e7483600181518110610e4357610e43612a75565b63ffffffff168152602001610e98610b6484600281518110610aea57610aea612a75565b610ea190612a8b565b90529392505050565b6003602052600090815260409020805460018201546002830180546001600160401b038416946001600160a01b03600160401b90950485169484169360ff600160a01b90910416929091610efd906126f8565b80601f0160208091040260200160405190810160405280929190818152602001828054610f29906126f8565b8015610f765780601f10610f4b57610100808354040283529160200191610f76565b820191906000526020600020905b815481529060010190602001808311610f5957829003601f168201915b5050604080516060810182526003870154815260048701546020820152600587015460ff16918101919091526006909501549394936001600160401b0316925089915050565b60408051808201825260008082526020808301829052835180850185528281528101829052835180850190945284518452848101908401529091610fff906115b3565b90506040518060400160405280611025610b6484600081518110610aea57610aea612a75565b61102e90612a8b565b81526020016110568360018151811061104957611049612a75565b6020026020010151611793565b151590529392505050565b60408051606081018252600080825260208083018290528284018290528351808501855282815281018290528351808501909452845184528481019084015290916110ab906115b3565b905060405180606001604052806110d1610b6484600081518110610aea57610aea612a75565b6110da90612a8b565b81526020016110f8610b6484600181518110610aea57610aea612a75565b61110190612ade565b6bffffffffffffffffffffffff1916815260200161112e610b6484600281518110610aea57610aea612a75565b61113790612ade565b6001600160601b03191690529392505050565b60006111586102d2836125ee565b9050600061116e36849003840160a085016125fa565b6020808201518251604080850151905194955060009461118e9401612616565b604051602081830303815290604052905060006111ab84836114db565b6001600160a01b03811660009081526001602052604090205490915060ff166112165760405162461bcd60e51b815260206004820152601860248201527f436f6d7075746572206e6f742077686974656c697374656400000000000000006044820152606401610391565b60056112286080870160608801612639565b6008811115611239576112396124fa565b146112865760405162461bcd60e51b815260206004820152601c60248201527f457870656374656420437265617465436f6d6d69746d656e74205458000000006044820152606401610391565b60006112d26112986080880188612656565b8080601f016020809104026020016040519081016040528093929190818152602001838380828437600092019190915250610a7292505050565b805160009081526004602052604090205490915060ff166113055760405162461bcd60e51b815260040161039190612a31565b6000858152600360205260409020869061131f828261286d565b505060008581526004602052604090819020805460ff19166001179055517f443548341b5f0228fdbd6de5e046d5baa7bf2e28b6ac2149fa775d116df416cd90610a629087815260200190565b604080516001808252818301909252600091829190816020015b60608152602001906001900390816113865790505090506113dc83602001516040516020016113c8919060609190911b6001600160601b031916815260140190565b6040516020818303038152906040526117d5565b816000815181106113ef576113ef612a75565b6020908102919091010152604080516001808252818301909252600091816020015b606081526020019060019003908161141157905050905061145384604001516040516020016113c8919060609190911b6001600160601b031916815260140190565b8160008151811061146657611466612a75565b6020908102919091010152835161147c8361182b565b6114858361182b565b6114a38760600151600881111561149e5761149e6124fa565b61184f565b87608001516040516020016114bc959493929190612b15565b6040516020818303038152906040528051906020012092505050919050565b6000806000806114ea85611862565b92509250925060006001878585856040516000815260200160405260405161152e949392919093845260ff9290921660208401526040830152606082015260800190565b6020604051602081039080840390855afa158015611550573d6000803e3d6000fd5b5050604051601f1901519150506001600160a01b0381166115a75760405162461bcd60e51b8152602060048201526011602482015270496e76616c6964207369676e617475726560781b6044820152606401610391565b93505050505b92915050565b60606115be826118e2565b6115c757600080fd5b60006115d283611913565b90506000816001600160401b038111156115ee576115ee612154565b60405190808252806020026020018201604052801561163357816020015b604080518082019091526000808252602082015281526020019060019003908161160c5790505b50905060006116458560200151611998565b85602001516116549190612b8e565b90506000805b848110156116bd5761166b83611a19565b915060405180604001604052808381526020018481525084828151811061169457611694612a75565b60209081029190910101526116a98284612b8e565b9250806116b581612ac5565b91505061165a565b509195945050505050565b80516060906116d657600080fd5b6000806116e284611ac2565b915091506000816001600160401b0381111561170057611700612154565b6040519080825280601f01601f19166020018201604052801561172a576020820181803683370190505b5090506020810161173c848285611b09565b50949350505050565b80516000901580159061175a57508151602110155b61176357600080fd5b60008061176f84611ac2565b81519193509150602082101561178b5760208290036101000a90045b949350505050565b80516000906001146117a457600080fd5b6020820151805160001a908115806117bc5750608082145b156117cb575060009392505050565b5060019392505050565b6060808251600114801561180357506080836000815181106117f9576117f9612a75565b016020015160f81c105b1561180f5750816115ad565b61182461181e84516080611b8c565b84611d42565b9392505050565b6060600061183883611dbf565b9050611824611849825160c0611b8c565b82611d42565b60606115ad61185d83611f70565b6117d5565b600080600083516041146118b85760405162461bcd60e51b815260206004820152601860248201527f496e76616c6964207369676e6174757265206c656e67746800000000000000006044820152606401610391565b50505060208101516040820151606083015160001a91906118da83601b612ba1565b949193509150565b805160009081036118f557506000919050565b6020820151805160001a9060c08210156117cb575060009392505050565b8051600090810361192657506000919050565b6000806119368460200151611998565b84602001516119459190612b8e565b905060008460000151856020015161195d9190612b8e565b90505b8082101561198f5761197182611a19565b61197b9083612b8e565b91508261198781612ac5565b935050611960565b50909392505050565b8051600090811a60808110156119b15750600092915050565b60b88110806119cc575060c081108015906119cc575060f881105b156119da5750600192915050565b60c0811015611a07576119ef600160b8612bba565b6119fc9060ff1682612bd3565b611824906001612b8e565b6119ef600160f8612bba565b50919050565b80516000908190811a6080811015611a345760019150611abb565b60b8811015611a5a57611a48608082612bd3565b611a53906001612b8e565b9150611abb565b60c0811015611a875760b78103600185019450806020036101000a85510460018201810193505050611abb565b60f8811015611a9b57611a4860c082612bd3565b60f78103600185019450806020036101000a855104600182018101935050505b5092915050565b6000806000611ad48460200151611998565b90506000818560200151611ae89190612b8e565b90506000828660000151611afc9190612bd3565b9196919550909350505050565b80600003611b1657505050565b60208110611b4e5782518252611b2d602084612b8e565b9250611b3a602083612b8e565b9150611b47602082612bd3565b9050611b16565b8015611b875760006001611b63836020612bd3565b611b6f90610100612cca565b611b799190612bd3565b845184518216911916178352505b505050565b6060806038841015611bf65760408051600180825281830190925290602082018180368337019050509050611bc18385612b8e565b601f1a60f81b81600081518110611bda57611bda612a75565b60200101906001600160f81b031916908160001a905350611824565b600060015b611c058187612cec565b15611c2b5781611c1481612ac5565b9250611c24905061010082612d00565b9050611bfb565b611c36826001612b8e565b6001600160401b03811115611c4d57611c4d612154565b6040519080825280601f01601f191660200182016040528015611c77576020820181803683370190505b509250611c848583612b8e565b611c8f906037612b8e565b601f1a60f81b83600081518110611ca857611ca8612a75565b60200101906001600160f81b031916908160001a905350600190505b818111611d3957610100611cd88284612bd3565b611ce490610100612cca565b611cee9088612cec565b611cf89190612d17565b601f1a60f81b838281518110611d1057611d10612a75565b60200101906001600160f81b031916908160001a90535080611d3181612ac5565b915050611cc4565b50509392505050565b6060806040519050835180825260208201818101602087015b81831015611d73578051835260209283019201611d5b565b50855184518101855292509050808201602086015b81831015611da0578051835260209283019201611d88565b508651929092011591909101601f01601f191660405250905092915050565b60608151600003611de0576040805160008082526020820190925290611abb565b6000805b8351811015611ea8576000848281518110611e0157611e01612a75565b60200260200101515111611e6e5760405162461bcd60e51b815260206004820152602e60248201527f416e206974656d20696e20746865206c69737420746f20626520524c5020656e60448201526d31b7b232b21034b990373ab6361760911b6064820152608401610391565b838181518110611e8057611e80612a75565b60200260200101515182611e949190612b8e565b915080611ea081612ac5565b915050611de4565b6000826001600160401b03811115611ec257611ec2612154565b6040519080825280601f01601f191660200182016040528015611eec576020820181803683370190505b50600092509050602081015b855183101561173c576000868481518110611f1557611f15612a75565b602002602001015190506000602082019050611f33838284516120a1565b878581518110611f4557611f45612a75565b60200260200101515183611f599190612b8e565b925050508280611f6890612ac5565b935050611ef8565b6040805160208082528183019092526060916000919060208201818036833701905050905082602082015260005b6020811015611fe157818181518110611fb957611fb9612a75565b01602001516001600160f81b031916600003611fe15780611fd981612ac5565b915050611f9e565b6000611fee826020612bd3565b6001600160401b0381111561200557612005612154565b6040519080825280601f01601f19166020018201604052801561202f576020820181803683370190505b50905060005b815181101561173c57838361204981612ac5565b94508151811061205b5761205b612a75565b602001015160f81c60f81b82828151811061207857612078612a75565b60200101906001600160f81b031916908160001a9053508061209981612ac5565b915050612035565b8282825b602081106120dd57815183526120bc602084612b8e565b92506120c9602083612b8e565b91506120d6602082612bd3565b90506120a5565b600060016120ec836020612bd3565b6120f890610100612cca565b6121029190612bd3565b925184518416931916929092179092525050505050565b60006020828403121561212b57600080fd5b81356001600160401b0381111561214157600080fd5b8201610120818503121561182457600080fd5b634e487b7160e01b600052604160045260246000fd5b60405160e081016001600160401b038111828210171561218c5761218c612154565b60405290565b6001600160401b03811681146121a757600080fd5b50565b80356121b581612192565b919050565b6001600160a01b03811681146121a757600080fd5b80356121b5816121ba565b600981106121a757600080fd5b80356121b5816121da565b600082601f83011261220357600080fd5b81356001600160401b038082111561221d5761221d612154565b604051601f8301601f19908116603f0116810190828211818310171561224557612245612154565b8160405283815286602085880101111561225e57600080fd5b836020870160208301376000602085830101528094505050505092915050565b60ff811681146121a757600080fd5b60006060828403121561229f57600080fd5b604051606081018181106001600160401b03821117156122c1576122c1612154565b8060405250809150823581526020830135602082015260408301356122e58161227e565b6040919091015292915050565b6000610120828403121561230557600080fd5b61230d61216a565b9050612318826121aa565b8152612326602083016121cf565b6020820152612337604083016121cf565b6040820152612348606083016121e7565b606082015260808201356001600160401b0381111561236657600080fd5b612372848285016121f2565b6080830152506123858360a0840161228d565b60a082015261239761010083016121aa565b60c082015292915050565b6000602082840312156123b457600080fd5b81356001600160401b038111156123ca57600080fd5b61178b848285016122f2565b6000602082840312156123e857600080fd5b5035919050565b60006020828403121561240157600080fd5b8135611824816121ba565b60006020828403121561241e57600080fd5b81356001600160401b0381111561243457600080fd5b61178b848285016121f2565b600081518084526020808501945080840160005b8381101561247057815187529582019590820190600101612454565b509495945050505050565b602081528151602082015260208201516040820152604082015160608201526000606083015160c060808401526124b560e0840182612440565b90506080840151601f19808584030160a08601526124d38383612440565b925060a08601519150808584030160c0860152506124f18282612440565b95945050505050565b634e487b7160e01b600052602160045260246000fd5b60005b8381101561252b578181015183820152602001612513565b50506000910152565b6001600160401b03881681526001600160a01b0387811660208301528616604082015260006101206009871061257a57634e487b7160e01b600052602160045260246000fd5b8660608401528060808401528551808285015261014091506125a28183860160208a01612510565b601f01601f191683010190506125d260a0830185805182526020808201519083015260409081015160ff16910152565b6001600160401b03831661010083015298975050505050505050565b60006115ad36836122f2565b60006060828403121561260c57600080fd5b611824838361228d565b928352602083019190915260f81b6001600160f81b031916604082015260410190565b60006020828403121561264b57600080fd5b8135611824816121da565b6000808335601e1984360301811261266d57600080fd5b8301803591506001600160401b0382111561268757600080fd5b60200191503681900382131561269c57600080fd5b9250929050565b600081356115ad81612192565b600081356115ad816121da565b600982106126db57634e487b7160e01b600052602160045260246000fd5b805460ff60a01b191660a09290921b60ff60a01b16919091179055565b600181811c9082168061270c57607f821691505b602082108103611a1357634e487b7160e01b600052602260045260246000fd5b601f821115611b8757600081815260208120601f850160051c810160208610156127535750805b601f850160051c820191505b818110156127725782815560010161275f565b505050505050565b6001600160401b0383111561279157612791612154565b6127a58361279f83546126f8565b8361272c565b6000601f8411600181146127d957600085156127c15750838201355b600019600387901b1c1916600186901b178355612833565b600083815260209020601f19861690835b8281101561280a57868501358255602094850194600190920191016127ea565b50868210156128275760001960f88860031b161c19848701351681555b505060018560011b0183555b5050505050565b813581556020820135600182015560028101604083013561285a8161227e565b815460ff191660ff919091161790555050565b813561287881612192565b815467ffffffffffffffff19166001600160401b0382161782555060208201356128a1816121ba565b815468010000000000000000600160e01b031916604091821b68010000000000000000600160e01b031617825560018201908301356128df816121ba565b81546001600160a01b0319166001600160a01b039190911617815561290f612909606085016126b0565b826126bd565b5061291d6080830183612656565b61292b81836002860161277a565b505061293d60a083016003830161283a565b61296e61294d61010084016126a3565b600683016001600160401b0382166001600160401b03198254161781555050565b5050565b81516001600160401b0381111561298b5761298b612154565b61299f8161299984546126f8565b8461272c565b602080601f8311600181146129d457600084156129bc5750858301515b600019600386901b1c1916600185901b178555612772565b600085815260208120601f198616915b82811015612a03578886015182559484019460019091019084016129e4565b5085821015612a215787850151600019600388901b60f8161c191681555b5050505050600190811b01905550565b60208082526024908201527f4d61746368696e67204a6f6252756e41737369676e6d656e74205458206d697360408201526373696e6760e01b606082015260800190565b634e487b7160e01b600052603260045260246000fd5b80516020808301519190811015611a135760001960209190910360031b1b16919050565b634e487b7160e01b600052601160045260246000fd5b600060018201612ad757612ad7612aaf565b5060010190565b805160208201516001600160601b03198082169291906014831015612b0d5780818460140360031b1b83161693505b505050919050565b6001600160401b0360c01b8660c01b16815260008551612b3c816008850160208a01612510565b855190830190612b53816008840160208a01612510565b8551910190612b69816008840160208901612510565b8451910190612b7f816008840160208801612510565b01600801979650505050505050565b808201808211156115ad576115ad612aaf565b60ff81811683821601908111156115ad576115ad612aaf565b60ff82811682821603908111156115ad576115ad612aaf565b818103818111156115ad576115ad612aaf565b600181815b80851115612c21578160001904821115612c0757612c07612aaf565b80851615612c1457918102915b93841c9390800290612beb565b509250929050565b600082612c38575060016115ad565b81612c45575060006115ad565b8160018114612c5b5760028114612c6557612c81565b60019150506115ad565b60ff841115612c7657612c76612aaf565b50506001821b6115ad565b5060208310610133831016604e8410600b8410161715612ca4575081810a6115ad565b612cae8383612be6565b8060001904821115612cc257612cc2612aaf565b029392505050565b60006118248383612c29565b634e487b7160e01b600052601260045260246000fd5b600082612cfb57612cfb612cd6565b500490565b80820281158282048414176115ad576115ad612aaf565b600082612d2657612d26612cd6565b50069056fea26469706673582212204dc58a584cc1234ea361cd2eb393a29372d68fed6c9acb4ea036a2962b93485c64736f6c63430008110033","linkReferences":{}},"methodIdentifiers":{"blockBuilders(address)":"63cebe62","computers(address)":"eb021d5c","decodeCreateCommitment(bytes)":"8628192a","decodeJobRunAssignment(bytes)":"e79fbb51","decodeJobRunRequest(bytes)":"89b8482c","decodeJobVerification(bytes)":"b189aa2e","hasTx(bytes32)":"2d200a6f","sendJobRunRequest((uint64,address,address,uint8,bytes,(bytes32,bytes32,uint8),uint64))":"20710d18","submitCreateCommitment((uint64,address,address,uint8,bytes,(bytes32,bytes32,uint8),uint64))":"e8fd6795","submitJobRunAssignment((uint64,address,address,uint8,bytes,(bytes32,bytes32,uint8),uint64))":"13b419f6","submitJobVerification((uint64,address,address,uint8,bytes,(bytes32,bytes32,uint8),uint64))":"24407e82","txs(bytes32)":"986ba392","verifiers(address)":"6c824487"},"id":23}